:100000000000032025060000658D0000C1050000EA
:10001000C7050000CD050000D3050000000000006A
:10002000000000000000000000000000FD040000CF
:10003000690600000000000095050000A50500000D
:100040008106000085060000890600008D0600007C
:100050009106000095060000990600009D0600002C
:10006000A1060000A5060000A9060000AD060000DC
:10007000B1060000B5060000B9060000BD0600008C
:10008000C10600006906000069060000690600005C
:1000900069060000690600006906000069060000A4
:1000A000C5060000C9060000CD060000D10600000C
:1000B000D5060000D9060000DD060000E1060000BC
:1000C000E5060000E9060000ED060000F10600006C
:1000D000F5060000F9060000FD06000069060000B4
:1000E0006906000069060000690600006906000054
:1000F0006906000069060000690600006906000044
:100100006906000069060000690600006906000033
:100110006906000069060000690600006906000023
:100120006906000069060000690600006906000013
:100130006906000069060000690600006906000003
:10014000690600000107000005070000090700001C
:100150000D07000011070000690600006906000095
:100160006906000069060000150700001907000075
:100170001D070000210700002507000029070000D7
:100180002D07000031070000350700009D7F0000AB
:10019000B57F0000CD7F0000690600006906000001
:1001A0006906000069060000690600006906000093
:1001B0006906000069060000690600006906000083
:1001C0006906000069060000690600006906000073
:1001D0006906000069060000690600006906000063
:1003F000690600006906000069060000FFFFFFFFB4
:10040000FFFFFFFFFFFFFFFFFFFFFFFFFEFFFFFFFD
:1004400010B5054C237833B9044B13B10448AFF30E
:1004500000800123237010BDA00B002000000000CD
:100460001477010008B5034B1BB103490348AFF3F0
:10047000008008BD00000000A40B002014770100DC
:10048000A3F5803A704700BF174B002B08BF134BF2
:100490009D46FFF7F5FF00218B460F461348144A8F
:1004A000121A12F0ABF80E4B002B00D098470D4BF0
:1004B000002B00D098470020002104000D000D48BB
:1004C000002802D00C4805F003FD11F0BFFC20000D
:1004D000290003F041FB05F0F7FE00BF0000080013
:1004E00000000000B53A000000000320A00B00202F
:1004F00000440020D15E0000000000001EF0040F48
:100500000CBFEFF30880EFF30980816911F8021C3A
:1005100091BB01B590E80F10E047BDE800508CE8B2
:100520000300244B93E80600914208BF704741B98D
:100530001EF0100F10D12049086820F0010008605B
:100540000AE02CE9F00F1EF0100F08BF2CED108A06
:10055000C1F838C081F822E01A6092F82210906B3E
:1005600061F0FF0E1EF0100F08BFB0EC108AB0E86B
:10057000F00F80F309887047104A13689942FAD83F
:1005800001B552F821C00FC8E047BDE80050CCF8D3
:100590000000704701B502F00DFDBDE80140EFF32A
:1005A000098CBEE701B502F0CDFCBDE80140EFF3D8
:1005B000098CB6E71800002034EF00E0A0440100E9
:1005C000102300F007B8202300F004B8302300F017
:1005D00001B840239C46F0B404AE7546E80801D348
:1005E000EFF309860E4F0FCE0FC70FBC0FC7404663
:1005F000494652465B460FC71DCE3100A60A00D3BE
:1006000004316E0900D248311FC7EFF309806946F3
:10061000EFF3148663C76046014904F099FB00BFFD
:100620000004FF1F72B60948094901600948804764
:1006300009490A4A0A4B9A42BEBF51F8040B42F8D4
:10064000040BF8E762B607488047000008ED00E0B9
:1006500000000000458700004477010000000020F2
:10066000900B002089040000FFF7FEBF35480047CB
:10067000354800473548004735480047354800476A
:10068000354800473548004735480047354800475A
:10069000354800473548004735480047354800474A
:1006A000354800473548004735480047354800473A
:1006B000354800473548004735480047354800472A
:1006C000354800473548004735480047354800471A
:1006D000354800473548004735480047354800470A
:1006E00035480047354800473548004735480047FA
:1006F00035480047354800473548004735480047EA
:1007000035480047354800473548004735480047D9
:1007100035480047354800473548004734480047CA
:1007200033480047324800473148004730480047C7
:1007300030480047304800473048004730480047BD
:1007400030480047658D0000C1050000FD04000031
:1007500095050000A5050000DD7E0000E97E000093
:10076000F57E0000017F00000D7F0000197F000072
:10077000257F0000317F00003D7F0000497F0000A1
:10078000557F0000617F00006D7F0000797F0000D1
:10079000857F0000917F0000690600005580000001
:1007A00069800000917D0000C57D0000718200001D
:1007B000AD82000069060000B586000069060000F1
:1007C000D186000069060000ED8600006906000081
:1007D0000987000069060000F97D000025870000F8
:1007E0006906000041870000690600007D80000066
:1007F000E57F0000E982000069060000690600004C
:10080000690600006906000000000000000000000A
:1008100001F0FF01102A2BDB10F0070F08D010F8B1
:10082000013B013A8B422DD010F0070F42B3F6D1B5
:10083000F0B441EA012141EA014122F007047FF0CE
:1008400000070023F0E80256083C85EA010586EA25
:10085000010685FA47F5A3FA87F586FA47F6A5FA61
:1008600087F68EB9EED1F0BC01F0FF0102F007026D
:1008700032B110F8013B013A83EA010313B1F8D118
:100880000020704701387047002D06BF35460338F9
:10089000073815F0010F07D1013015F4807F02BF32
:1008A000013015F4C03F0130F0BC0138704700BF83
:1008B000844641EA000313F003036DD1403A41D36B
:1008C00051F8043B40F8043B51F8043B40F8043B2A
:1008D00051F8043B40F8043B51F8043B40F8043B1A
:1008E00051F8043B40F8043B51F8043B40F8043B0A
:1008F00051F8043B40F8043B51F8043B40F8043BFA
:1009000051F8043B40F8043B51F8043B40F8043BE9
:1009100051F8043B40F8043B51F8043B40F8043BD9
:1009200051F8043B40F8043B51F8043B40F8043BC9
:1009300051F8043B40F8043B51F8043B40F8043BB9
:10094000403ABDD2303211D351F8043B40F8043B59
:1009500051F8043B40F8043B51F8043B40F8043B99
:1009600051F8043B40F8043B103AEDD20C3205D369
:1009700051F8043B40F8043B043AF9D2043208D061
:10098000D2071CBF11F8013B00F8013B01D30B88D3
:1009900003806046704700BF082A13D38B078DD0B1
:1009A00010F003038AD0C3F10403D21ADB071CBF83
:1009B00011F8013B00F8013B80D331F8023B20F8ED
:1009C000023B7BE7043AD9D3013A11F8013B00F826
:1009D000013BF9D20B7803704B7843708B788370AE
:1009E00060467047000000000000000000000000AA
:1009F00000000000000000000000000000000000F7
:100A000090F800F06DE9024520F007016FF0000C4E
:100A100010F0070491F820F040F049804FF00004F6
:100A20006FF00700D1E9002391F840F000F10800D1
:100A300082FA4CF2A4FA8CF283FA4CF3A2FA8CF309
:100A40004BBBD1E9022382FA4CF200F10800A4FA70
:100A50008CF283FA4CF3A2FA8CF3E3B9D1E90423C4
:100A600082FA4CF200F10800A4FA8CF283FA4CF3FB
:100A7000A2FA8CF37BB9D1E9062301F1200182FAB5
:100A80004CF200F10800A4FA8CF283FA4CF3A2FABB
:100A90008CF3002BC6D0002A04BF04301A4612BAC9
:100AA000B2FA82F2FDE8024500EBD2007047D1E9CC
:100AB000002304F00305C4F100004FEAC50514F05B
:100AC000040F91F840F00CFA05F562EA05021CBF2C
:100AD00063EA050362464FF00004A9E781F0004194
:100AE00002E000BF83F0004330B54FEA41044FEA13
:100AF000430594EA050F08BF90EA020F1FBF54EAAE
:100B0000000C55EA020C7FEA645C7FEA655C00F049
:100B1000E2804FEA5454D4EB5555B8BF6D420CDD1A
:100B20002C4480EA020281EA030382EA000083EA9D
:100B3000010180EA020281EA0303362D88BF30BD3D
:100B400011F0004F4FEA01314FF4801C4CEA113193
:100B500002D0404261EB410113F0004F4FEA0333F2
:100B60004CEA133302D0524263EB430394EA050F7D
:100B700000F0A780A4F10104D5F1200E0DDB02FAEC
:100B80000EFC22FA05F2801841F1000103FA0EF280
:100B9000801843FA05F359410EE0A5F120050EF146
:100BA000200E012A03FA0EFC28BF4CF0020C43FA77
:100BB00005F3C01851EBE37101F0004507D54FF084
:100BC000000EDCF1000C7EEB00006EEB0101B1F5D4
:100BD000801F1BD3B1F5001F0CD349085FEA30001A
:100BE0004FEA3C0C04F101044FEA445212F5800F25
:100BF00080F09A80BCF1004F08BF5FEA500C50F1C2
:100C0000000041EB045141EA050130BD5FEA4C0CA4
:100C1000404141EB0101013C28BFB1F5801FE9D201
:100C200091F0000F04BF01460020B1FA81F308BF24
:100C30002033A3F10B03B3F120020CDA0C3208DDF0
:100C400002F1140CC2F10C0201FA0CF021FA02F1CB
:100C50000CE002F11402D8BFC2F1200C01FA02F13B
:100C600020FA0CFCDCBF41EA0C019040E41AA2BF60
:100C700001EB0451294330BD6FEA04041F3C1CDA28
:100C80000C340EDC04F11404C4F1200220FA04F048
:100C900001FA02F340EA030021FA04F345EA0301F2
:100CA00030BDC4F10C04C4F1200220FA02F001FAB4
:100CB00004F340EA0300294630BD21FA04F0294636
:100CC00030BD94F0000F83F4801306BF81F48011CF
:100CD0000134013D4EE77FEA645C18BF7FEA655C42
:100CE00029D094EA050F08BF90EA020F05D054EA14
:100CF000000C04BF1946104630BD91EA030F1EBF19
:100D00000021002030BD5FEA545C05D1400049411C
:100D100028BF41F0004130BD14F580043CBF01F50F
:100D2000801130BD01F0004545F0FE4141F47001F5
:100D30004FF0000030BD7FEA645C1ABF19461046D0
:100D40007FEA655C1CBF0B46024650EA013406BFD1
:100D500052EA033591EA030F41F4002130BD00BF90
:100D600090F0000F04BF0021704730B54FF480644D
:100D700004F132044FF000054FF0000150E700BFCE
:100D800090F0000F04BF0021704730B54FF480642D
:100D900004F1320410F0004548BF40424FF000011A
:100DA0003EE700BF42004FEAE2014FEA31014FEA5D
:100DB00002701FBF12F07F4393F07F4F81F06051AC
:100DC000704732F07F4208BF704793F07F4F04BFF7
:100DD00041F40021704730B54FF4607401F00045D4
:100DE00021F000411CE700BF50EA010208BF704734
:100DF00030B54FF000050AE050EA010208BF704725
:100E000030B511F0004502D5404261EB41014FF48D
:100E1000806404F132045FEA915C3FF4D8AE4FF095
:100E200003025FEADC0C18BF03325FEADC0C18BF78
:100E3000033202EBDC02C2F1200300FA03FC20FAC9
:100E400002F001FA03FE40EA0E0021FA02F1144416
:100E5000BDE600BF70B54FF0FF0C4CF4E06C1CEA2F
:100E600011541DBF1CEA135594EA0C0F95EA0C0FA0
:100E700000F0DEF82C4481EA030621EA4C5123EA13
:100E80004C5350EA013518BF52EA033541F4801142
:100E900043F4801338D0A0FB02CE4FF00005E1FBF5
:100EA00002E506F00042E0FB03E54FF00006E1FB3F
:100EB00003569CF0000F18BF4EF0010EA4F1FF0482
:100EC000B6F5007F64F5407404D25FEA4E0E6D41C2
:100ED00046EB060642EAC62141EA55514FEAC520D3
:100EE00040EA5E504FEACE2EB4F1FD0C88BFBCF54F
:100EF000E06F1ED8BEF1004F08BF5FEA500E50F100
:100F0000000041EB045170BD06F0004646EA0101C5
:100F100040EA020081EA0301B4EB5C04C2BFD4EBF7
:100F20000C0541EA045170BD41F480114FF0000EF0
:100F3000013C00F3AB8014F1360FDEBF002001F05E
:100F4000004170BDC4F10004203C35DA0C341BDCD8
:100F500004F11404C4F1200500FA05F320FA04F0AA
:100F600001FA05F240EA020001F0004221F00041DE
:100F700010EBD37021FA04F642EB06015EEA430E51
:100F800008BF20EAD37070BDC4F10C04C4F1200581
:100F900000FA04F320FA05F001FA04F240EA020034
:100FA00001F0004110EBD37041F100015EEA430E05
:100FB00008BF20EAD37070BDC4F1200500FA05F225
:100FC0004EEA020E20FA04F301FA05F243EA0203A4
:100FD00021FA04F001F0004121FA04F220EA0200B3
:100FE00000EBD3705EEA430E08BF20EAD37070BDF9
:100FF00094F0000F0FD101F00046400041EB0101D9
:1010000011F4801F08BF013CF7D041EA060195F0BA
:10101000000F18BF704703F00046520043EB030374
:1010200013F4801F08BF013DF7D043EA0603704761
:1010300094EA0C0F0CEA135518BF95EA0C0F0CD06C
:1010400050EA410618BF52EA4306D1D181EA0301B2
:1010500001F000414FF0000070BD50EA410606BFAC
:101060001046194652EA430619D094EA0C0F02D1F1
:1010700050EA013613D195EA0C0F05D152EA033636
:101080001CBF104619460AD181EA030101F0004154
:1010900041F0FE4141F470014FF0000070BD41F09D
:1010A000FE4141F4780170BD70B54FF0FF0C4CF477
:1010B000E06C1CEA11541DBF1CEA135594EA0C0F96
:1010C00095EA0C0F00F0A7F8A4EB050481EA030EE3
:1010D00052EA03354FEA013100F088804FEA0333CA
:1010E0004FF0805545EA131343EA12634FEA022298
:1010F00045EA111545EA10654FEA00260EF0004159
:101100009D4208BF964244F1FD0404F5407402D2AA
:101110005B084FEA3202B61A65EB03055B084FEA3B
:1011200032024FF480104FF4002CB6EB020E75EB38
:10113000030E22BFB61A754640EA0C005B084FEA60
:101140003202B6EB020E75EB030E22BFB61A7546DD
:1011500040EA5C005B084FEA3202B6EB020E75EB28
:10116000030E22BFB61A754640EA9C005B084FEAA0
:101170003202B6EB020E75EB030E22BFB61A7546AD
:1011800040EADC0055EA060E18D04FEA051545EA9C
:1011900016754FEA06164FEAC30343EA52734FEA45
:1011A000C2025FEA1C1CC0D111F4801F0BD141EABE
:1011B00000014FF000004FF0004CB6E711F4801F23
:1011C00004BF01430020B4F1FD0C88BFBCF5E06F03
:1011D0003FF6AFAEB5EB030C04BFB6EB020C5FEA13
:1011E000500C50F1000041EB045170BD0EF0004E68
:1011F0004EEA113114EB5C04C2BFD4EB0C0541EA9A
:10120000045170BD41F480114FF0000E013C90E696
:1012100045EA060E8DE60CEA135594EA0C0F08BF5A
:1012200095EA0C0F3FF43BAF94EA0C0F0AD150EA59
:1012300001347FF434AF95EA0C0F7FF425AF1046EC
:1012400019462CE795EA0C0F06D152EA03353FF414
:10125000FDAE1046194622E750EA410618BF52EA91
:1012600043067FF4C5AE50EA41047FF40DAF52EA65
:1012700043057FF4EBAE12E74FEA410212F500128C
:1012800015D211D56FF47873B3EB625212D94FEACD
:10129000C12343F0004343EA505311F0004F23FAB7
:1012A00002F018BF404270474FF00000704750EA0C
:1012B000013005D111F0004008BF6FF000407047C9
:1012C0004FF00000704700BF4A0011D212F5001223
:1012D00011D20DD56FF47873B3EB62520ED44FEA8E
:1012E000C12343F0004343EA505323FA02F070470E
:1012F0004FF00000704750EA013002D14FF0FF304C
:1013000070474FF0000070477BB972B90029BEBF2B
:1013100000204FF0004106E008BF00281CBF6FF01E
:1013200000414FF0FF3000F0BFB9ADF1080C6DE99E
:1013300004CE002909DB002B1ADB00F04DF8DDF8A4
:1013400004E0DDE9022304B07047404261EB410153
:10135000002B1BDB00F040F8DDF804E0DDE90223A0
:1013600004B0404261EB4101524263EB43037047DA
:10137000524263EB430300F02FF8DDF804E0DDE9AF
:10138000022304B0404261EB41017047524263EBDB
:10139000430300F021F8DDF804E0DDE9022304B0A6
:1013A000524263EB4303704753B94AB9002908BF5F
:1013B00000281CBF4FF0FF314FF0FF3000F074B930
:1013C000ADF1080C6DE904CE00F006F8DDF804E09C
:1013D000DDE9022304B070472DE9F047089D04467B
:1013E0008E46002B4DD18A42944669D9B2FA82F2D8
:1013F00052B101FA02F3C2F1200120FA01F10CFA14
:1014000002FC41EA030E94404FEA1C48210CBEFB4B
:10141000F8F61FFA8CF708FB16E341EA034306FBD4
:1014200007F199420AD91CEB030306F1FF3080F063
:101430001F81994240F21C81023E63445B1AA4B2B0
:10144000B3FBF8F008FB103344EA034400FB07F752
:10145000A7420AD91CEB040400F1FF3380F00A8193
:10146000A74240F207816444023840EA0640E41B88
:1014700000261DB1D4400023C5E900433146BDE834
:10148000F0878B4209D9002D00F0EF800026C5E9D6
:10149000000130463146BDE8F087B3FA83F6002EEE
:1014A0004AD18B4202D3824200F2F980841A61EB66
:1014B000030301209E46002DE0D0C5E9004EDDE784
:1014C00002B9FFDEB2FA82F2002A40F09280A1EB6C
:1014D0000C014FEA1C471FFA8CFE0126200CB1FBC1
:1014E000F7F307FB131140EA01410EFB03F08842BA
:1014F00008D91CEB010103F1FF3802D2884200F247
:10150000CB804346091AA4B2B1FBF7F007FB1011D8
:1015100044EA01440EFB00FEA64508D91CEB040476
:1015200000F1FF3102D2A64500F2BB800846A4EBD1
:101530000E0440EA03409CE7C6F12007B34022FABC
:1015400007FC4CEA030C20FA07F401FA06F31C43EB
:10155000F9404FEA1C4900FA06F3B1FBF9F8200CF8
:101560001FFA8CFE09FB181140EA014108FB0EF03E
:10157000884202FA06F20BD91CEB010108F1FF3A8E
:1015800080F08880884240F28580A8F1020861449A
:10159000091AA4B2B1FBF9F009FB101144EA0141A8
:1015A00000FB0EFE8E4508D91CEB010100F1FF3453
:1015B0006CD28E456AD90238614440EA0840A0FBEB
:1015C0000294A1EB0E01A142C846A64656D353D0C1
:1015D0005DB1B3EB080261EB0E0101FA07F722FAE5
:1015E00006F3F1401F43C5E9007100263146BDE80E
:1015F000F087C2F12003D8400CFA02FC21FA03F371
:10160000914001434FEA1C471FFA8CFEB3FBF7F0F1
:1016100007FB10360B0C43EA064300FB0EF69E4216
:1016200004FA02F408D91CEB030300F1FF382FD2AF
:101630009E422DD9023863449B1B89B2B3FBF7F657
:1016400007FB163341EA034106FB0EF38B4208D930
:101650001CEB010106F1FF3816D28B4214D9023E71
:101660006144C91A46EA004638E72E46284605E78F
:101670000646E3E61846F8E64B45A9D2B9EB020860
:1016800064EB0C0E0138A3E74646EAE7204694E7F0
:101690004046D1E7D0467BE7023B614432E7304623
:1016A00009E76444023842E7704700BF70470368A7
:1016B00018470368084618471FB5254B25481A6880
:1016C000023211461A60039203F0BEFD039A2249CA
:1016D000224803F0CFFD012300930F2183B21F4A5C
:1016E0001F480CF06CFE011E26DA6FF47A739942E3
:1016F0000AD11C4811F05CF81B4804210EF0F5F8E3
:10170000044638B904B010BD184804B0BDE8104014
:1017100003F09ABD164B036040F6B8310EF0D1FAD3
:10172000204614490EF0D0FA13490F48224604B05F
:10173000BDE810400EF097B9104803F085FD07484A
:101740001E22002104B0BDE8104010F057BF00BFBA
:1017500048150020704101008E410100E61900206B
:10176000BC0B0020A7410100BC140020BB410100BC
:10177000B9160000AD160000AF160000D8410100F8
:10178000F0B5014685B00B2830D8DFE800F0060A36
:1017900013151515151D4F4F5557294811F008F809
:1017A0000DE028480DF0F1FF274805B0BDE8F040F6
:1017B00010F0FEBF2548F1E7254803F045FD05B0D0
:1017C000BDE8F040FFF778BF224810F0F1FF03AB0F
:1017D0000093214921480DF10B031E220CF00BFE52
:1017E000041E05DA1E48214603F02EFD05B0F0BDAB
:1017F0009DF80B101B48184F1B4E224603F024FD8A
:101800000025EBB29C4205F1010504DDF95C304690
:1018100003F01AFDF5E7154810F0CAFF0E481E2226
:10182000002105B0BDE8F04010F0E8BE104805B05A
:10183000BDE8F04003F008BD0E48B6E70E48ADE73E
:1018400002420100BC1400201F4201003E42010080
:10185000624201008C420100C8190020BC0B00202C
:10186000B6420100D6420100F7420100C643010022
:10187000FD42010022430100404301001FB500F07A
:10188000C7F8244924480CF059FD044630B12348D8
:1018900010F08EFF4FF0FF3004B010BD204810F064
:1018A00087FF204B0393204B0294CDE9003404AB17
:1018B00013E90F001D4C84E80F00214616480CF078
:1018C000B4FD154803210CF059FD08B11848DFE7B5
:1018D0001848032103F0B8FC0F480CF060FD08B174
:1018E0001548D5E7154810F063FF0B480CF037FD9D
:1018F000014630B110F57E7F03D0114803F0A4FCFF
:10190000C8E7104810F054FF02480DF03AFF0020DD
:10191000C2E700BFBC140020BC0B00205B430100E9
:101920007C430100B3160000811700001815002049
:101930009F430100C8430100ED430100134401002F
:101940003C4401005E44010070B590B04FF0FF339D
:1019500042F20B02CDE90B32CDE90D33CDE909336B
:10196000089342F2040242F20C03CDE9063202214E
:1019700041F21703CDE904311C4D1D4C012641F203
:101980000903CDE9023641F202004FF44053CDE99C
:10199000003043F2030243F2010343F202012846FE
:1019A00007F016FB22461349284604F08FFA124B23
:1019B0001E60124E00224FF4027130460DF0CCFE34
:1019C00030460F4E0F49224604F080FA2946304631
:1019D0000CF084FC22460C49304604F077FA0B4B9D
:1019E0000022DA60DA61DA6210B070BD50150020B2
:1019F00000000020A192000048150020BC14002027
:101A0000BC0B002077F700000FE300001815002042
:101A1000704708B5014610B1132001F019FE0020EF
:101A200008BD000008B5EFF305832BB9EFF3108371
:101A300013B9EFF3118333B16FF0050000F0D5F95E
:101A40006FF0050008BDDFF808C000DFFAE700BF4F
:101A5000131A0000EFF310832BB9EFF31180003855
:101A600018BF0120704701207047000038B50546B7
:101A7000A0B1846802686CB114F0030302D1C1689C
:101A80000F2926D86FF00801002002F04FF900243A
:101A9000204638BDC368002BF4D11546104BD3F84F
:101AA000900078B100F00FFC0446A0B10123A370B0
:101AB0000023C4E90233F322094B2270094A65600E
:101AC0005A66E5E7D3F880000122102100F088FB78
:101AD000EAE71546EBE76FF0040102F027F9D7E7D4
:101AE00004000020C11B000070B5054610B103784A
:101AF000F32B07D028466FF0030102F017F96FF0BF
:101B0000030070BD836863B1284601F0A1FB002289
:101B10006FF0020101F04CFCA8680028F4D101F03C
:101B20001BFCAB78002613F001032E700FD0094B7D
:101B3000D3F89040294624B1204600F0DEFB304621
:101B4000DFE7D3F8800000F07FFB2046D9E7184696
:101B5000D7E700BF04000020930710B502F001048E
:101B600022D400F10C0384B153E8000F00EA010213
:101B70008A4203D0BFF32F8F002005E020EA010244
:101B800043E8002404B1EFE710BD53E8000F08421A
:101B900003D1BFF32F8F002005E020EA010243E8C4
:101BA000002404B1F1E7EFE7C06801EA00031CB1CB
:101BB0008B4218BF0020E7E7002B08BF0020E3E7B7
:101BC000F8B58468054604B9F8BD94F82320616A25
:101BD000A7682846FFF7C0FF064638B1204601F047
:101BE00040FB00223146204601F0E2FB3C46EAE79A
:101BF000F8B50D4617461E46044620B10378F32B70
:101C000001D1002907DA20466FF0030102F08EF8B7
:101C10006FF00300F8BDFFF79FFF0028FAD186B1EF
:101C20003146432001F014FD40B1074B5E69204668
:101C3000314601F0FBFA756286F823706FF00100FF
:101C4000E8E76FF00200E5E7040000202DE9F0412D
:101C5000064620B10378F32B01D1002909DA6FF091
:101C60000301304602F062F86FF003052846BDE834
:101C7000F08100F10C0353E8002F42EA010543E82C
:101C8000005000B1F7E7B4681CB9204601F064FBCE
:101C9000ECE794F82320616AD4F808803046FFF717
:101CA0005BFF074678B194F823309B0756BF656AFF
:101CB000054620EA0505204601F0D3FA0022394600
:101CC000204601F075FB4446DEE7000008B50246F9
:101CD000EFF3058333B100206FF0050102F026F821
:101CE000002008BDFFF7B6FE0028F4D1DFF808C0D9
:101CF000104600DFF5E700BF6D1A000038B5024658
:101D00000D46EFF305834BB192B96FF00301104616
:101D100002F00CF86FF00304204638BDFFF79AFE7E
:101D20000028F1D1DFF830C0104600DF0446F3E7A9
:101D30001378F32BE9D1002DE7DB02F10C0353E814
:101D4000001F41EA050443E8004000B1F7E71046F0
:101D500001F078F9E0E700BF4D1C0000F8B504463B
:101D60000E4617461D46EFF3058343B18CB9204656
:101D70006FF0030101F0DAFF6FF00300F8BDFFF729
:101D800069FE0028F2D1DFF82CC020462B4600DF88
:101D9000F4E72378F32BEAD1002DE8D1002EE6DB1F
:101DA0003A4631462046FFF7D7FE002808BF6FF0BD
:101DB0000200E3E7F11B000008B50246EFF30583DC
:101DC0003BB110466FF0050101F0B0FF6FF0050068
:101DD00008BDFFF73FFE0028F3D1DFF808C010462A
:101DE00000DFF5E7E91A000070477047EFF3108352
:101DF0002BB9EFF31180003818BF01207047012084
:101E000070470000014BD868704700BF04000020F5
:101E100070B5484C217A012900F08A8031B14FF029
:101E2000FF3001F077FF4FF0FF3070BD424D9C2234
:101E300004F1080010F0E2FBD5E90B61EB68E36503
:101E40002B8AA4F854303046AB68236400F0B0F914
:101E500008B1C4F88060D5E90561304600F0A8F902
:101E600008B9D4F880606667D5E90761304600F0AC
:101E70009FF908B9D4F88060A667D5E909613046B2
:101E800000F096F908B9D4F88060E6676E6B3EB151
:101E9000D6E902233168304600F0F4F9C4F88460D2
:101EA000AE6B3EB1D6E902233168304600F0EAF964
:101EB000C4F88860EE6B3EB1D6E902233168304643
:101EC00000F0E0F9C4F88C602E6C3EB1D6E9022334
:101ED0003168304600F0D6F9C4F890606E6C3EB1BF
:101EE000D6E902233168304600F0CCF9C4F894609A
:101EF000AE6C3EB1D6E902233168304600F0C2F93B
:101F0000C4F89860EE6C3EB1D6E9022331683046E1
:101F100000F0B8F9C4F89C602D6D3DB1D5E90223FD
:101F20002968284600F0AEF9C4F8A05001232372B6
:101F300000207AE704000020D040010070B5264D53
:101F40002B7A012B07D06FF0060001F0E3FE4FF073
:101F5000FF34204670BD01F081FC10B94FF0FF3016
:101F6000F3E71E4A1E4E1F497068FF2382F8223095
:101F700092F82230D26863F0FF03DB4314BFB3FA58
:101F800083F32023C3F12003C2F30222934298BFBC
:101F9000531CFE2202FA03F3104ADBB2D37701F09E
:101FA00015FF04460028D9D101F066FF286101F031
:101FB0004FFF0D4801F04CF901F0C4F9336813F0FC
:101FC000010F4FF0020303D083F314882B72C0E794
:101FD000032282F31488F9E70400002000ED00E0FA
:101FE000D0400100A50500002000002010B5134CD2
:101FF000237A022B05D06FF0070001F08BFE002042
:1020000010BD01F02DFF01236372BFF34F8F0C4A07
:102010005168C90042BF4FF000615160A372E36A8A
:102020004BB1D869636C1BB11B69984228BF184635
:1020300004232372E4E74FF0FF30F3E704000020AD
:1020400000ED00E0F8B5214C237A042B05463BD186
:10205000E3680344E360E36A53B106460127DA69A3
:10206000B24225D8DF61B61A01F01EF9E36A13BB4C
:10207000636C4BB101261869A8421FD81E61236DFD
:102080002D1A9847636CE3B902230020237201F0F4
:1020900063F900236372BFF34F8FA27A22B1A37258
:1020A0000B4B4FF080525A60BDE8F84001F0D0BEB3
:1020B000921BDA61DCE7002ED1D1D9E7401B186111
:1020C000E2E7002DD7D1DFE7F8BD00BF0400002014
:1020D00000ED00E07047000008B5FFF7FBFFEFF3ED
:1020E000058333B16FF0050001F014FE6FF00500B9
:1020F00008BDFFF77BFE0028F4D1DFF808C000DF41
:10210000F6E700BF111E000008B5EFF3058333B1F9
:102110006FF0050001F0FEFD6FF0050008BDFFF750
:1021200065FE0028F4D1DFF808C000DFF6E700BF45
:102130003D1F000008B5EFF305832BB16FF00500DC
:1021400001F0E8FD002008BDFFF750FE0028F5D1A2
:10215000DFF804C000DFF6E7ED1F000008B5024617
:10216000EFF305832BB1BDE808406FF0050001F0E7
:10217000D1BDFFF73BFE0028F5D1DFF808C01046BF
:1021800000DF08BD4520000008B5EFF3058313B15B
:10219000054BD86808BDFFF729FE0028F8D1DFF805
:1021A0000CC000DFF6E700BF04000020051E0000A1
:1021B00010B598B140EA010313F007030ED11729B7
:1021C0000AD90160083910220C18846042600B5053
:1021D00081684A60C3600123184610BD0023FBE7F5
:1021E000F0B5034670B369B332F003002AD10F3162
:1021F00021F0070103F10806344636686568301B94
:1022000025F00305401B814203D930680028F3D133
:10221000F0BD5F681D680F445F602B44083B586841
:10222000874288BF5F6063680A431BB9626004F13C
:102230000800EDE723F00303E018E6504260206059
:102240000830E5E70020E3E710B580B1C1B1A1F1A6
:10225000080400F108030022A34209D1596821F0C3
:1022600003044168091B41603AB95A60012010BD5E
:1022700019681A4621B10B46EEE71B681360F5E7B3
:102280000846F4E730B5C0B189B1C2B1CBB1002482
:10229000C0E9014202FB01F41D190160C360436102
:1022A00005611846013904D1A21A99500121084646
:1022B00030BD851805602846F4E70146F7E711466A
:1022C000F5E71946F3E710B50346A8B100F114028B
:1022D00052E8000F10B9BFF32F8F04E0016842E805
:1022E000001404B1F4E738B1043353E8002F511C53
:1022F00043E8001404B1F8E710BD30B5F0B1C3688D
:102300008B421BD803698B4218D900F114031A6859
:102310000A60BFF35F8F53E8002F0C689442F6D138
:1023200043E8001505B1F2E7043050E8003F5A1EBB
:1023300040E8002101B1F8E7002030BD6FF0030054
:10234000FBE7EFF310832BB9EFF31180003818BFD0
:102350000120704701207047D1E9013223B19A6012
:102360008A681AB153607047C262F9E70363704725
:102370002DE9F84F8846074600B131B96FF00301E7
:10238000002001F0E9FC002477E0CE1C26F00306D3
:102390000C36B0FA80F104D0B6FA86F30B441F2B4A
:1023A000ECDD06FB07FAF2B194683CB1A30702D159
:1023B000D368332B05D86FF00801E1E7D368002B11
:1023C000F9D1D2E90453D2F800903DB115F0030BD6
:1023D00001D19A4554D96FF00901D1E7002BFAD108
:1023E0001CB19B460CE091461546274BD3F8A00044
:1023F000D8B1FFF768FF0446A0B14FF0010B35BB21
:10240000214B0022D86F5146FFF7EAFE0546C0B9BE
:10241000BBF1000F06D01C4BD3F8A000214658B1E9
:10242000FFF76BFF6FF00401AAE7D3F880000122E9
:102430003421FFF7D5FEDEE7D3F88000FFF704FF75
:10244000F0E75246002110F0D9F84BF0020BFA23C6
:1024500023700023C4E90983C4E90B33A360324627
:102460002B4684F802B0C4F80490394604F10C00FD
:10247000FFF708FF044B054A1A672046BDE8F88FAE
:10248000002CE4D1B1E700BF040000201D250000AE
:1024900010B500F1280353E8002F12B9BFF32F8FB6
:1024A00004E0511E43E8001404B1F4E70AB9002027
:1024B00010BDC06A01220028F9D0811CD1E84F3F2D
:1024C000C1E8442F04B1F9E7DBB2002BF0D08068FB
:1024D000F1E7036B30B5E3B1CD780024DA78AA4296
:1024E0000FD31A46C1E901248AB19160A4B1616099
:1024F000283050E8003F5A1C40E8002101B1F8E7BD
:1025000030BD5A681C46002AECD01346E6E7C1628B
:10251000ECE7C1E90133C1620163E9E7F8B5877807
:1025200004468FB3C568014600272846FFF714FF0D
:10253000277005F10C042046FFF7DFFEAB68002B87
:1025400048D02046FFF7BFFE0446002842D0284668
:1025500000F07EFE3A460646394600F029FF304636
:1025600000F0D2FE6A6A8168064604F10C00FEF7AC
:102570009FF9F9232370A770F368E370214628467A
:10258000BDE8F840FFF7A5BF8568AB68002BF5D024
:102590005B78832BF2D1284600F05AFE3A46064675
:1025A000394600F005FF304600F0AEFE06466A6A86
:1025B000806804F10C01FEF77BF9F3680BB1E27857
:1025C0001A7000232370214605F10C00BDE8F84085
:1025D000FFF793BEF8BD00002DE9F0410C46174609
:1025E0009846054618B10378FA2B00D141B9284620
:1025F0006FF0030101F0B0FB6FF00300BDE8F08164
:102600008368C3B15B78832B15D100F021FE0122D2
:102610000646002100F0CCFE304600F075FE06466E
:102620006A6A80682146FEF743F9F0680028E5D021
:1026300007700020E2E705F10C00FFF744FE0646B4
:1026400070B121466A6A0C30FEF732F90024F92392
:102650003370B470F77031462846FFF73AFFE8E769
:10266000B8F1000F10D04146932000F0F1FF40B1C7
:10267000074B2846596900F0D9FDEFF30983C3E9F8
:1026800002476FF00100B9E76FF00200B6E700BF44
:10269000040000202DE9F0410F46154698460446F7
:1026A00018B10378FA2B00D141B920466FF003012D
:1026B00001F052FB6FF00300BDE8F081FFF7E8FE88
:1026C000064600283AD001462046FFF745FE626ADA
:1026D00006F10C013846FEF7EBF80DB1F3782B70DC
:1026E000002504F10C07357031463846FFF705FE2A
:1026F000A3680BB90020DFE73846FFF7E4FD064684
:102700000028F7D0204600F0A3FD29460746012205
:1027100000F04EFE384600F0F7FD626A8168074619
:1027200006F10C00FEF7C4F8F9233370B570FB68AE
:10273000F37031462046FFF7CCFEDBE7B8F1000F1F
:1027400010D04146832000F083FF40B1074B204664
:10275000596900F06BFDEFF30983C3E902756FF06F
:102760000100A9E76FF00200A6E700BF0400002007
:1027700010B50446EFF3058333B100206FF0050177
:1027800001F0EAFA002010BDFFF7DBFD0028F4D1CC
:10279000DFF808C0204600DFF5E700BF7123000026
:1027A0002DE9F04106460F4690461C46EFF305839F
:1027B0004BB196B930466FF0030101F0CDFA6FF0DE
:1027C0000300BDE8F081FFF7BCFD0028F1D1DFF880
:1027D0004CC03046234600DFF3E73378FA2BE9D1CB
:1027E000002FE7D0002CE5D106F10C00FFF76BFDC0
:1027F000054680B1726A39460C30FEF759F8F92364
:102800002846C5E901762B70AC7085F8038000F08E
:1028100019FC2046D5E76FF00200D2E7D925000069
:10282000F8B504460F4616461D46EFF3058343B13F
:102830008CB920466FF0030101F08EFA6FF00300AF
:10284000F8BDFFF77EFD0028F2D1DFF848C0204632
:102850002B4600DFF4E72378FA2BEAD1002FE8D0EB
:10286000002DE6D12046FFF713FE054670B100F1BA
:102870000C01626A3846FEF71BF80EB1EB78337034
:102880002846EC6000F0DEFB0020D9E76FF0020084
:10289000D6E700BF95260000EFF310832BB9EFF3C6
:1028A0001180003818BF01207047012070470000D8
:1028B00070B5A8B38468D0E900566CB114F0030376
:1028C00002D1C2681B2A1AD86FF00801002001F05B
:1028D00033FA0024204670BDC368002BF4D1124B9C
:1028E000D3F8940030B9D3F8800001221C21FFF7FF
:1028F00077FC01E0FFF7E7FC044660B10123F52215
:10290000A3700023C4E90233C4E904332270E670E3
:1029100065602376DEE76FF0040101F00DFAD9E778
:1029200005460646DBE700BF04000020284B70B5D3
:102930005D6904460E4635B96FF0070101F0FCF9F8
:102940004FF0FF3070BD10B10378F52B07D0204653
:102950006FF0030101F0F0F96FF00300F2E7037E7E
:1029600053B9C0E90353EB6A436103B11861EC62E8
:10297000012323760020E5E7C278D1070DD5C16891
:10298000A9420AD1FF2B06D16FF00F0101F0D4F953
:102990006FF00200D6E70133EBE7002EF8D0930783
:1029A0000AD5E06895F9203090F920209A4203DAA0
:1029B00080F8203000F05EFC3146532000F048FEE5
:1029C00018B12946204600F031FC6FF00100B9E74C
:1029D0000400002038B52F4B5A69044632B96FF015
:1029E000070101F0A9F94FF0FF3038BD10B10378AD
:1029F000F52B07D020466FF0030101F09DF96FF031
:102A00000300F2E7037E33B96FF00E0101F094F991
:102A10006FF00200E9E7C168914202D06FF00D014A
:102A2000F4E7013BDBB2037633BB43690BB10169C9
:102A30001961216911B34B61E3789B0705D592F9C0
:102A40002110D36AE3B982F82010A3688BB1204625
:102A500000F0FEFB00220546114600F0A9FC002311
:102A60002361EB6AE560636103B11C610123EC62E1
:102A70002376002000F070FC0020B6E7D362DBE78D
:102A8000986820B190F920008142B8BF01465B6987
:102A9000D8E700BF0400002070B5044610B10378E9
:102AA000F52B07D020466FF0030101F045F96FF0D8
:102AB000030070BD037ED3B16369C0680BB12269A6
:102AC0001A6122691AB35361E3789B070BD590F919
:102AD0002130C26AEAB990F920209A4203D080F8E6
:102AE000203000F0C7FBA068E0B900F035FCA0780A
:102AF000002610F001002670DBD0124BD3F8945062
:102B00002146C5B12846FFF7F8FB3046D1E7C3623E
:102B1000DAE7916821B191F920108B42B8BF0B46DA
:102B20005269D7E7204600F093FB00226FF00201C4
:102B300000F03EFCD7E7D3F88000FFF785FB28467E
:102B4000B7E700BF040000202DE9F041044600264D
:102B500001270CB9BDE8F081E378D4F814801B0795
:102B600012D5A36826767BB1204600F071FB0022C7
:102B70000546114600F01CFCEB6A6361C4E903568C
:102B800003B11C61EC6227764446E2E710B4C378D7
:102B90009B071AD5C06890F92130C26A94688C42AC
:102BA00008BF8C6824B194F92040A342B8BF2346E3
:102BB0005269002AF2D190F920209A4205D080F87B
:102BC00020305DF8044B00F055BB5DF8044B7047B6
:102BD00008B50246EFF3058333B100206FF005011D
:102BE00001F0AAF8002008BDFFF756FE0028F4D136
:102BF000DFF808C0104600DFF5E700BFB12800008D
:102C000008B50246EFF305833BB110466FF00501AE
:102C100001F092F86FF0050008BDFFF73DFE0028B7
:102C2000F3D1DFF808C0104600DFF5E72D290000DA
:102C300008B50246EFF305833BB110466FF005017E
:102C400001F07AF86FF0050008BDFFF725FE0028B7
:102C5000F3D1DFF808C0104600DFF5E7D529000002
:102C600008B50246EFF305833BB110466FF005014E
:102C700001F062F86FF0050008BDFFF70DFE0028B7
:102C8000F3D1DFF808C0104600DFF5E7992A00000D
:102C9000EFF310832BB9EFF31180003818BF012038
:102CA0007047012070470C30D0E85F3F13B9BFF385
:102CB0002F8F04E05A1EC0E8512F01B1F4E798B2FB
:102CC000003818BF0120704730B500F10C02C189EF
:102CD000D2E85F3F994202D8BFF32F8F04E05C1C1B
:102CE000C2E8554F05B1F3E7C0899BB2984294BF43
:102CF0000020012030BD0000F8B515464FF6FE73E8
:102D0000421E9A4206460F4601D8884207D26FF00B
:102D10000301002001F016F800242046F8BD7DB123
:102D2000AC682A6844B114F0030302D1E9680F29A2
:102D300022D86FF00801ECE7EB68002BF9D11546BB
:102D4000114BD3F8980080B1FFF7BDFA0446A8B143
:102D50000123A3700023F622A3600B4B22700B4AC1
:102D60006560A781E6819A66D7E7D3F880000122E3
:102D70001021FFF735FAE9E71546EAE76FF004019D
:102D800000F0E0FFC9E700BF04000020012E0000B2
:102D900070B5054610B10378F62B07D028466FF0C2
:102DA000030100F0CFFF6FF0030070BD836863B1D3
:102DB000284600F04DFA00226FF0020100F0F8FA08
:102DC000A8680028F4D100F0C7FAAB78002613F009
:102DD00001032E700FD0094BD3F89840294624B137
:102DE0002046FFF78AFA3046DFE7D3F88000FFF786
:102DF0002BFA2046D9E71846D7E700BF0400002089
:102E0000836810B504465BB1FFF74DFF40B1204623
:102E100000F01EFA0022BDE81040114600F0C8BACA
:102E200010BD38B5054610B10378F62B07D02846FB
:102E30006FF0030100F086FF6FF0030038BD846877
:102E40003CB100F005FA0122002100F0B1FA0020A7
:102E5000F4E7FFF739FF38B928466FF0100100F0AA
:102E600071FF6FF00200E9E72046E7E710B504467E
:102E7000EFF3058333B100206FF0050100F062FF2E
:102E8000002010BDFFF704FF0028F4D1DFF808C0D0
:102E9000204600DFF5E700BFF92C000010B504461E
:102EA000EFF3058343B184B920466FF0030100F0CE
:102EB00049FF6FF0030010BDFFF7EAFE0028F2D1D2
:102EC000DFF830C0204600DFF5E72378F62BEBD1A2
:102ED0002046FFF7F9FE20B1204600F0B3F80020AD
:102EE000E9E720466FF0100100F02CFF6FF00200C0
:102EF000E1E700BF232E000008B50246EFF305838B
:102F00003BB110466FF0050100F01CFF6FF00500AB
:102F100008BDFFF7BDFE0028F3D1DFF808C010465A
:102F200000DFF5E7912D000010B5D0E85F3F5A1C97
:102F3000914200D80022C0E8542F04B1F5E798B2BE
:102F400010BD000038B51A4C00F090FFE368013363
:102F5000E360236D03B1984700F0A6F9002000F06C
:102F6000FBF9236C1BB3A26BA1698A4202D0A16357
:102F7000E3631CE0E36BB3B9237A022B17D1656AD4
:102F8000ADB195F9201092F9203099420FD1284621
:102F900000F067F9A06B00F07FF9284600F0D2F945
:102FA000236CA563E4E7013BE363002BE4D038BD69
:102FB0000400002070B5224C04F1560504F15A06B5
:102FC000B4F85410D5E85F3F13B9BFF32F8F04E076
:102FD0005A1EC5E8502F00B1F4E79BB25BB33046F0
:102FE000FFF7A2FFE36D53F8200020B30378F13B15
:102FF000082BE5D801A252F823F000BF21300000D1
:10300000C12F000027300000C12F0000C12F000099
:103010002B3000002F300000C12F000033300000A3
:10302000236E9847CCE7636EFBE7A36EF9E7E36E88
:10303000F7E7236FF5E7BDE87040002000F08CB99A
:103040000400002070B5164C0546B4F8541004F185
:103050005602D2E85F3F994202D8BFF32F8F04E0B7
:10306000581CC2E8560F06B1F3E79BB2994205D847
:1030700029460220BDE8704000F00EBE04F1580061
:10308000FFF752FFE36D43F82050637A23B9054BF5
:103090004FF080525A6070BD0123A372FBE700BF5E
:1030A0000400002000ED00E0EFF310832BB9EFF3F4
:1030B0001180003818BF0120704701207047037845
:1030C000F12B00D07047C068F9E7000010B50A4A3C
:1030D00090F9201001234370536A1C321BB193F9FD
:1030E00020408C4205DCC0E90232906003B1D86018
:1030F00010BD1A469B68F1E704000020014B586997
:10310000704700BF04000020024B586900B1806A7C
:10311000704700BF0400002010B5002303808378AF
:103120009A07044608D513F0100F016B0E4B0FD011
:10313000D3F88400FFF7E1F8A378DB0712D50A4B38
:10314000D3F88800214638B1BDE81040FFF7D5B864
:10315000586FFFF779F8EFE7BDE81040D3F880002B
:10316000FFF772B810BD00BF0400002008B500F0E2
:10317000F9FDDFF810C000DF4FF0FF31002000F054
:10318000CFFDFEE73537000010B5C469621CD0E9F9
:1031900004310AD103B1596142691AB113610023A4
:1031A000436101E0064A136310BD1BB1DA6959613E
:1031B0002244DA614269002AF0D1014AD362F3E77E
:1031C00004000020930710B502F0010422D400F19E
:1031D000280384B153E8000F00EA01028A4203D0B9
:1031E000BFF32F8F002005E020EA010243E800240E
:1031F00004B1EFE710BD53E8000F084203D1BFF35D
:103200002F8F002005E020EA010243E8002404B1EA
:10321000F1E7EFE7806A01EA00031CB18B4218BFB7
:103220000020E7E7002B08BF0020E3E710B591F985
:10323000202083681BB193F92040944205DAC1E94C
:103240000230816003B1D96010BD18469B68F1E778
:1032500083689A68826002B1D0600022DA60184602
:103260007047C2682AB18368936003B1DA600023B3
:10327000C360704710B5044664B12378F12B07D0C2
:10328000FFF7EFFF01462046BDE81040FFF7CEBF35
:10329000E468F1E710BD00000123014643700148D6
:1032A000FFF7C4BF2000002038B5164DEC6A44B3C8
:1032B000E369013BE36123BB6378732B06D009D834
:1032C000532B0BD003F0DF03432B0DD12046FFF728
:1032D000F6FE09E003F0EF03832BF6E72046FFF745
:1032E000EEFE2146FFF752FC2046FFF7BAFFFFF73C
:1032F000D3FF246924B1E369002BDDD0002363618F
:10330000EC6238BD0400002090F82230826B13F08C
:10331000100F0CBF6020202010447047074B5969E4
:1033200051B10B6B8A6B934203D21A68044B9A42D9
:1033300002D0012000F0B0BC704700BF04000020A4
:10334000A52E5AE208B502234370024B9861FFF79D
:10335000E5FF08BD0400002010B5144B04461A7A9E
:103360005969A0B9022A1FD15C6AECB194F92020F6
:1033700091F920309A4217DD2046FFF772FF084688
:10338000FFF7A4FE2046BDE81040FFF7DBBF022A8E
:1033900005D190F9202091F920309A42EFDC2046A7
:1033A000BDE81040FFF778BF10BD00BF040000204B
:1033B00038B505461446FFF7A7FF01602846FFF71A
:1033C000E3FE1CB1BDE83840FFF7C6BFBDE838409A
:1033D000FFF762BF10B54378332B04460CD1416A26
:1033E00090F82320FFF7EEFE014628B12046002288
:1033F000BDE81040FFF7DCBF10BD70B5044620B13A
:103400000378F12B01D1002908DA6FF0030120467F
:10341000FEF7EAFC6FF00305284670BD4378042BE5
:1034200006D16FF00201FEF7DFFC6FF00205F3E753
:1034300000F1280353E8002F42EA010543E8005653
:1034400006B1F7E74378332BE6D1416A90F82320A1
:10345000FFF7B8FE01460028DED094F823309B0722
:1034600056BF656A054620EA050501222046FFF79A
:103470009FFFD1E72DE9F04F85B00391019028B966
:103480006FF0030100F04CFC0024BEE0002A4AD09B
:10349000966846B1B00702D1D368432B06D86FF0C7
:1034A00008010020EEE7D368002BF8D1D2E90449E7
:1034B000976944B1610703D1B9F1000F40F0B180C1
:1034C0006FF00A01EDE72FB1791E372903D96FF0AC
:1034D0000B01E6E71827B9F1000F40F0A680D2E90A
:1034E00000B3029366BB554DD5F8880008B3FEF7CC
:1034F000EAFE064600283DD04FF00108DFF83CA167
:10350000002C42D1B9F1000F1DD14D4BDAF88400E7
:10351000D3F85490B8B1FEF7D6FE0546E0B148F0B6
:103520001008344623E09346144618279146029229
:10353000D9E7D5F8800001224421FEF751FED8E7F3
:103540004FF00008DAE7DAF8740022464946FEF741
:1035500047FE05460028E4D1B8F1000F13D0DAF891
:10356000885031464DB12846FEF7C7FE002548F089
:10357000020864B96FF0040193E7DAF88000FEF7FF
:1035800063FE2C46F3E74546F1E72546344640F214
:10359000F11222800022C4E90222C4E90422C4E913
:1035A0000622C4E90922C4E90B25A9F14002029BC5
:1035B000E3702A44019BA2637FB2224AE363FD21A8
:1035C00084F80280C4F804B084F8207084F8217074
:1035D0006184C4F834902A60194A1268530718D4D9
:1035E000A36B3422184600210FF008F8164A4263F4
:1035F000019A82634FF08072C263039A0262134B96
:10360000CAF860302046FFF7A7FE204605B0BDE8A7
:10361000F08F29F00302443ACC21281D0EF0EEFF72
:10362000DEE7002F7FF450AF182719F0070F7FF463
:1036300047AFB9F1470F3FF652AF41E70400002012
:10364000D0400100A52E5AE26D310000D5330000B4
:1036500038B51E4C237A022B34D1636A002B33D049
:1036600063694A1C587015D1226B00216AB94FF06A
:10367000FF30C3E90421D86151B10B611448FFF751
:10368000E7FDFFF75FFE012038BD11461269EDE747
:103690002363F3E7E26A002012B1D569A9420BD295
:1036A000C3E90420D96158B10361002AE6D0D0698A
:1036B0005361411AD161E1E71046491B1269EBE7FA
:1036C000E362F2E70020DFE71846DDE704000020B0
:1036D00020000020F8B5164B5C6905460F461646DB
:1036E0003CB920466FF00701FEF77EFB4FF0FF303C
:1036F000F8BD002807DA20466FF00301FEF774FBDF
:103700006FF00300F4E70A4601462046FFF75AFD32
:103710000028EDD14EB1656284F823703146332024
:10372000FFF796FF6FF00100E2E76FF00200DFE7BE
:103730000400002038B5154D2B7A022B25D16B6A79
:103740001BB36C69E06AFFF7FFF9A06918B10022AA
:103750001146FFF72DFEEFF309830D48A363FFF732
:1037600077FDFFF7EFFD00236B61E278D20704D409
:103770002046BDE83840FFF7CFBC04226270E3600A
:103780006B6BA36003B1DC606C6338BD0400002088
:103790002000002038B5044610B10378F12B07D083
:1037A00020466FF0030100F0BBFA6FF0030038BD54
:1037B000437803F00F03022B25D0032B32D0012BCB
:1037C00035D1FFF74EFDE06AFFF7BEF9A06918B1E9
:1037D00000221146FFF7ECFD6378022B2AD1EFF3AC
:1037E00009831C48A363FFF733FDFFF7ABFD1A4BBA
:1037F00000225A61E07810F001051FD12046FFF742
:103800008BFC0020D3E7144B1A7A022A02D15B6AA0
:10381000002BD8D16FF00201204600F081FA6FF042
:103820000200C4E7FFF71DFDFFF7AEFCCBE76FF02A
:103830000201F2E70020FFF78FFDDBE70423064AD1
:1038400063700023E360536BA36003B1DC605463D7
:10385000D7E700BF200000200400002038B50B4C43
:103860000B48A26D0B4D0021FFF704FE636EA862AA
:103870004BB1E26D08480021FFF7FCFDA864003859
:1038800018BF012038BD0120FCE700BFD040010077
:10389000913C000004000020793A000010B5044675
:1038A000EFF3058333B100206FF0050100F038FA23
:1038B000002010BDFFF7F8FB0028F4D1DFF808C0A6
:1038C000204600DFF5E700BF7534000008B5EFF3D0
:1038D000058313B1054B586908BDFFF7E5FB0028C8
:1038E000F8D1DFF80CC000DFF6E700BF04000020CD
:1038F000FD30000010B5044600F040FAEFF30583F8
:103900003BB120466FF0050100F00AFA6FF00500A8
:1039100010BDFFF7C9FB0028F3D1DFF808C020462F
:1039200000DFF5E79537000038B502460D46EFF3A6
:1039300005834BB192B96FF003011046FEF754FABC
:103940006FF00304204638BDFFF7AEFB0028F1D12D
:10395000DFF844C0104600DF0446F3E71378F12B8C
:10396000E9D1002DE7DB5378042B07D16FF002017A
:103970001046FEF739FA6FF00204E3E702F128037C
:1039800053E8001F41EA050443E8004000B1F7E7AF
:103990001046FFF757FBD5E7FB33000008B5EFF300
:1039A00005830BB1002008BDFFF77EFB0028F9D18D
:1039B000DFF804C000DFF6E70931000010B5044667
:1039C000EFF305833BB100206FF00501FEF70CFA21
:1039D0006FF0050010BDFFF767FB0028F3D1DFF89B
:1039E00008C0204600DFF5E7D536000030B50C4DA5
:1039F0006B6C002213B11C698C420AD9C0E9022306
:103A000001611BB11C699860611A19612AB1D0600B
:103A100030BD1A46091BDB68ECE76864F8E700BFB5
:103A20000400002070B5134D6C6C04B32369013B96
:103A3000236101262369D3B9E3680BB1A2689A60B8
:103A40006B640023E86C1A4604F11801FEF7A8FE27
:103A500018B12146032000F01FF9E378012B07D1AC
:103A600061692046FFF7C2FF6C6C002CE2D170BD8B
:103A70006670F9E7040000200B4B0C4C07B51A6E7A
:103A8000586E0821FEF774FE094BE0642365E06C74
:103A90004FF0FF3300226946FEF7C2FE0028F6D140
:103AA000DDE900309847F2E7D04001000400002033
:103AB000253A000008B5094B094A1A60094B9B1AC0
:103AC000094A1360094B0A4A1A600A4B9B1A0A4AB0
:103AD000136000F051F800F07BF800BFB420002024
:103AE00000FC022000000320B02000207C370020D2
:103AF0000044002000FC0220783700200E4838B532
:103B00000E4B03600B250E4B45601C24C460836084
:103B1000FFF75EF80B4B18600B480C4BC460C0E914
:103B200000350B4B8360FFF753F80A4B1860BDE874
:103B300038400EF08BB900BF802000200445010002
:103B400094200020902000205020002011450100EA
:103B50006420002060200020FDF790BE024B4FF053
:103B6000FF311868FFF74CB890200020014B18680F
:103B7000FFF75EB890200020094A0A4938B59568D9
:103B800008460023EC5840F8044B0433B3F5CC7FCF
:103B9000F8D1916005F0B2F8BDE8384000F015B8F2
:103BA00000ED00E00000FF1F7047704708B500F00F
:103BB00043F8FFF7F9FFFFF7A1FFFFF7F6FF01F06A
:103BC00069FFBDE80840FFF7C7BFFEF785BA0000F0
:103BD000114C124B23614FF4805363614423E36023
:103BE0000F4BA360182307B5A3610E480E4B23604B
:103BF00022460021FFF752FE034628B90B490090E8
:103C000022460B4801F07EFFFEF77EFA00230949A9
:103C100000931A46F5E700BFB8300020B820002016
:103C2000DC300020AD3B00002B4501003045010099
:103C30001D0101804C4501001FB5064B0FCB6C46A2
:103C400084E80F002046FEF7C3FF034B186004B062
:103C500010BD00BF384101002031002073B5064679
:103C60000C46154601F048FF58B906342ABF064BEA
:103C7000064953F82410002300933246284601F0E9
:103C800041FF02B070BD00BF14470100694601004A
:103C900008B500F0F5F8000007B50023421E0093B8
:103CA0000023042A19D8DFE802F003080C101400DE
:103CB0000C490D48012201F025FF0C490C48022255
:103CC000F9E70C490C480322F5E70C490C4804229B
:103CD000F1E70C490C480522EDE702460B490C4878
:103CE000E9E700BF6145010025010280824501002E
:103CF00026010280A745010027010280DC45010062
:103D000028010280174601002A010280574601005F
:103D100000010280014A0146FFF7A0BF3101018086
:103D2000014AFFF79BBF00BF32010180014AFFF744
:103D300095BF00BF37010180014AFFF78FBF00BF69
:103D40003301018011F1110F02D0024AFFF786BF43
:103D5000704700BF34010180014AFFF77FBF00BFF9
:103D60003801018010B5FFF7B1FD034B1B6813B19B
:103D7000BDE81040184710BD40310020024B1B68C1
:103D800003B11847704700BF40310020024B987ABA
:103D9000003818BF012070470400002008B5FEF766
:103DA000C9F90749002201F087FFC31C04D905495E
:103DB00005488B2201F00AFCBDE80840FEF7CEB9A9
:103DC0008D3D00002C4701006B470100B0F57A7F64
:103DD00010B50C4604D019491948322201F0F6FBFF
:103DE00001F0AEFA0028174A14DB00F1604303F536
:103DF0006143F02183F80013916800F1100341F84A
:103E00002340926852F823309C420AD00B490E4856
:103E10003F22E3E700F00F03043B1344F02119763F
:103E2000EAE7002808DB0123420900F01F0003FA3B
:103E300000F0064B43F82200002010BD2C47010083
:103E40009847010000ED00E0A547010000E100E017
:103E500008B501F0B9FEBDE8084001F070BB0000F4
:103E6000014B186801F0A0BBE8360020014B186830
:103E700001F05CBBE836002008B501F061FA08BD2E
:103E800008B5024C23689847FCE700BFA800002053
:103E9000F8B50546064655F8044B8CB90D4F386801
:103EA00018B14FF0FF31FEF7ABFE346824B9284655
:103EB00002F002FB2C463560386808B1FEF7B8FE08
:103EC000AC4204D0044905488B2201F07FFB204618
:103ED000F8BD00BF20310020D24701000F4801008B
:103EE000036801221B6900211847036800221B692F
:103EF000114618476FF0150070470000C36810B5F1
:103F00002BB9044904484FF4FD7201F05FFBBDE892
:103F100010401847324801006B48010007B5019076
:103F200001F02AFC0198012104F02EFC03B05DF899
:103F300004EB01F037BC07B5019001F01DFC0198BE
:103F4000002104F021FC03B05DF804EB01F02ABC71
:103F500010B5044B044640F8083B04F02FFD204602
:103F600010BD00BF8048010010B50446FFF7F0FF08
:103F70002046342102F0F4F9204610BD0346024ADF
:103F8000083004F0C5BC00BFF33F000038B5094B52
:103F900003600023C0E90133C0E903330446036230
:103FA00003630D46FFF7EAFF201D294600F0ADFB35
:103FB000204638BD8048010084B070B505AD85E865
:103FC0000E00044601F0D8FB089A04F1080672B10D
:103FD00095E80F00143484E80F00012230460121D7
:103FE00004F0F4FCBDE8704004B001F0DBBB2262D9
:103FF000F4E7012908B502D0022907D008BD036AF9
:10400000002BFBD01430FFF779FFF7E7036B002B91
:10401000F4D02430F7E7000010B5094C0346014402
:10402000002099420AD013F8012B80EA026008228E
:10403000400028BF6040013AFAD1F2E710BD00BF4E
:10404000B71DC104416830B4034671B1D0E9032003
:1040500000F0010402B944B1451001EB60000CB15D
:1040600049598A58996830BC104730BC704713B51D
:10407000036C44680093D0E90E23416B201D02F0CD
:1040800053FD02B010BD000070B5054601F074FB91
:104090000A4B0B4C1A684FF4B67100239A420BDDA1
:1040A00001FB03F0065DAE4204D1044401F07AFB4B
:1040B000204670BD0133F1E70024F7E78835002082
:1040C00044310020084A08B51368022B04DD074973
:1040D0000748AF2201F07AFA591C1160054A4FF4E3
:1040E000B67000FB032008BD883500208848010019
:1040F000B3480100443100200023082210B5C0E974
:10410000122303860B4B03650446FF23A0F85430AB
:1041100001F032FB94F85C00FFF7B6FF606028B94D
:10412000FFF7D0FF94F85C3060600370BDE810408A
:1041300001F038BB40420F0038B5044612482060F9
:104140001248A06020460025E363049B2364C4E971
:104150000D12C4E90455E460A561E561E5624FF024
:10416000FF3140F8445F00F0D7FA094B2366D4E9E9
:104170000E12606BA56502F06BFC84F85C002046B3
:10418000FFF7BAFF204638BDE44801004540000073
:104190006F4000004368D3F86831834210B504468D
:1041A00010D0036E98476068D4E9121200230430DF
:1041B00002F01CFD6068216D043002F061FD63684F
:1041C000C3F8684110BD036870B504461B690D460D
:1041D000164698476068D0F86831A342C4E9125681
:1041E0000BD1002332462946043002F0FFFC23683D
:1041F00020465B69BDE8704018472046FFF7CAFFBC
:10420000F5E7036870B504461B690D46984760687A
:104210002565D0F86831A34209D12946043002F05F
:104220002FFD236820465B69BDE870401847204693
:10423000FFF7B0FFF5E7436C013302D0443004F0E0
:10424000C7BA704738B5036804461B69984794F9A4
:1042500055506B1C84F8553045B92046FFF79AFF3E
:1042600029462046BDE83840FFF7E5BF38BD10B508
:1042700090F85530013B5BB2044680F8553013B9D5
:104280000121FFF7D8FF236820465B69BDE8104095
:10429000184737B504460191FFF7D4FF60680199CC
:1042A000043002F013FD05462046FFF7E0FF2846E4
:1042B00003B030BD30B5044687B0CDE90421039387
:1042C000FFF7C0FF94F85450606801950A9D059966
:1042D0000095DDE90332043002F01CFD054620465E
:1042E000FFF7C5FF284607B030BD08B5406800F5A8
:1042F000A070FFF7CDFDBDE8084002F0E5B808B5B5
:10430000406800F5A070FFF7C3FDBDE8084002F06B
:10431000F9B8000010B50B4B03600446FFF7E5FF4A
:104320006368D3F86821A24208BF0022204608BF74
:10433000C3F86821FFF7E3FFE06908B100F0B2FFBE
:10434000204610BDE448010010B50446FFF7E2FF27
:104350002046642102F004F8204610BD70B5D0E973
:104360000213D0E908250446521845EB030300F078
:1043700049F9636B23B104F12800BDE87040184788
:1043800070BD000038B50446154600F025F9064B0F
:10439000236000220023C4E908230023636384F818
:1043A0003850204638BD00BF0449010013B504460B
:1043B00001A800F07FFF204600F02EF9636B23B1C7
:1043C00094F838300BB101F0B1FC0023636301A80D
:1043D00000F078FF02B010BD70B5054614461E46C9
:1043E00000F01AF9C5E90846A86900F003FC221894
:1043F00046EB01032846BDE8704000F003B984B0E5
:1044000073B5054607AC01A884E80E0000F052FF22
:104410006B6B23B995F838300BB101F071FC94E85F
:104420000F0005F1280686E80F00DDE90C23284679
:10443000FFF7D2FF01A800F045FF02B0BDE87040D1
:1044400004B0704730B5436B85B00446B3B100F19A
:1044500028030FCB6D4685E80F000023636394F8B3
:1044600038300BB101F062FC039B2BB904490548BD
:104470004FF4FD7201F0AAF82846984705B030BD08
:10448000324801006B48010010B5044600F062F9A3
:10449000002201462046FFF775FF024B23602046AD
:1044A00010BD00BF10490100437D10B504461BB18B
:1044B000037D0BB101F03AFC204610BD13B5044654
:1044C00001A800F0F7FE637D53B9237D0BB101F025
:1044D00017FC206900F08EFBC4E90001012363751D
:1044E00001A800F0EFFE02B010BD37B504460D463E
:1044F00001A800F0DFFE00230022C4E900236B7D49
:104500004BB1286900F076FBD5E90032C01A61EBA7
:104510000201C4E9000101A800F0D4FE204603B066
:1045200030BD30B585B004460D4603A800F0C2FE8C
:1045300029466846FFF7D9FFD5E90210009B019A8A
:104540005B1842EB0002C4E9003203A800F0BAFE97
:10455000204605B030BD07B501466846FFF7E1FFCC
:10456000DDE900014FF47A720023FCF7CDFE03B0C1
:104570005DF804FB13B5044601A800F09BFE20691A
:1045800000F038FB00220023C4E90001C4E9022343
:1045900001A800F097FE02B010BDD0B500230026A0
:1045A0000027C0E90067C0E902670446016102759F
:1045B0004375FFF7DFFF2046D0BD10B5044600F07D
:1045C00043FB012201462046FFF7E7FF204610BDCE
:1045D00003681B681847000010B50446074B2360AA
:1045E00000220023C4E9022300230846A161C4E994
:1045F0000433034900F08DFA204610BD1C49010028
:10460000D145000007B5009000F10801806900F075
:10461000BEFA03B05DF804FB00F10801806900F008
:10462000CEBA000010B5034B03600446FFF7F4FF59
:10463000204610BD1C4901000020704700290CBF16
:104640006FF01800002070470120704784B001A867
:1046500080E80E0004B07047EFF3108372B6054A8D
:10466000117831B90449DB4303F001030B700123D6
:10467000137070478D3500208C35002008B5EFF39E
:104680001083DB4313F0010304D0064906483622A9
:1046900000F09CFF054A1370054B1B7803B162B60E
:1046A00008BD00BF204901005B4901008D35002095
:1046B0008C35002070B50E460446154604F058F8B7
:1046C000013609D02046002104F05EF82946204634
:1046D000BDE8704004F055B870BDF8B50F4604460B
:1046E00015461E4604F044F801370DD031462046E9
:1046F00004F06EF82046012104F046F829462046D1
:10470000BDE8F84004F03DB8F8BD0222FFF7D2BF83
:1047100013460022FFF7E1BF0022FFF7F9BF73B590
:10472000164604461A460D46069B66B90193FFF7E6
:10473000C1FF01350CD0019B2046194602B0BDE8EF
:10474000704004F045B802B0BDE87040FFF7C5BF47
:1047500002B070BD0048704778490100024B1B68E9
:104760000BB1024818477047AC000020784901009F
:10477000884207B502460AD0431C08D0013105D053
:10478000002305490548009301F0BCF9014608469D
:1047900003B05DF804FB00BFA449010030010180B3
:1047A0000B685A1C01D118467047834201D14868F2
:1047B00070470C31F4E70000421C13B504460AD0E0
:1047C000FFF7EEFF431C06D1002304490448009381
:1047D000224601F097F902B010BD00BFB5490100B3
:1047E000300101800B685A1C01D118467047834282
:1047F00001D1886870470C31F4E7F8B5446894F843
:1048000032608EBB03685B689847216A81422BD077
:10481000236994F934202062411A1940A368A1FB4E
:1048200003C1CAB1656A15EB0C0541F10001002A0C
:104830001BDBC2F12000A2F1200325FA02FC01FAE1
:1048400000F021FA03F34CEA000C4CEA030CD140CF
:104850000CFA02F2AA1A6262D4E90A3213EB0C03D0
:1048600041EB0201C4E90A31F8BDE76833463A4634
:104870002846FCF799FD844607FB10506062EBE781
:10488000824206D98A420BD9884294BF0020012077
:104890007047884206D98A428CBF002001207047A9
:1048A00001207047002070472DE9F74347683B6BB4
:1048B00023F07F4929F0FF090646B9F1000F5FD1C7
:1048C000FFF79BFF7B68002B5DD0D3E90041D7E960
:1048D0000A23A2428B4105D333685B6903B0BDE86C
:1048E000F04318477568D5E90A03D5E90582241A0B
:1048F00061EB030CEB69A24273EB0C031ED3EB6874
:10490000A3FB044103FB0C1195F933309BB1AA685A
:10491000501E001941F10001002B1DDBC3F1200CDA
:10492000A3F1200220FA03F401FA0CFC44EA0C047F
:1049300021FA02F21443A04528BFA0462A6A3B6A26
:1049400090442A6908EA020293420AD113491448A2
:1049500040F2C91200F03AFE4B46FCF725FD044632
:10496000E9E73368019210461B69984733685B6832
:104970009847019A0146386AFFF782FF0028ABD1B9
:1049800003B0BDE8F0837B69386A3A69184433683C
:104990001B69104003B0BDE8F0431847D54901003A
:1049A000064A01004368F7B593F830200546002A0F
:1049B00040F0828093F83230002B7DD103681B6871
:1049C00098472B68DB69984703682BB93B493C48FB
:1049D00000931A4601F096F83A4C19462246B1FB6C
:1049E000F4F402FB14141146002CF7D16E68354C18
:1049F000B4FBF2FC0121C6F808C01F24013C02D11F
:104A00004FF0FF3403E001FA04F7BC45F6D1B3FBE5
:104A1000F2F286F83340F2601F23012101FA03F419
:104A2000A24203D0013BF9D14FF0FF3386F8343076
:104A30004468201F1C2805D90023234923480093DC
:104A40001A46C7E7202C1CBF0123A3404FF00701E3
:104A500001FA00F114BF03F1FF334FF0FF330027D9
:104A6000501E336171614FEAE173A1FB0C410CFBF5
:104A7000031C47F1FF3120184CEB01013B46FCF7CA
:104A800093FC2B68C6E90601C6E900775B68984786
:104A90006B683062002101220020C3E90A015F62D5
:104AA00028461A8683F83270FFF7A7FE284603B01F
:104AB000BDE8F040FFF7F8BE03B0F0BD2A4A0100A0
:104AC0000E01048040420F00434A010005010480AA
:104AD000F0B44568049C8C60C1E900236C68002632
:104AE0002CB9CC6066B96960F0BCFFF7DDBE276801
:104AF000BA42676873EB0707F3D32646E468EFE72B
:104B0000F160D5E90A41944271EB0303ECD2F0BCA9
:104B1000704738B505460C46FFF744FF00F02CFE01
:104B20006B681C60BDE8384000F03CBE70B50546BF
:104B300000F022FED5E90034DB68984794F8323063
:104B40001BB1BDE8704000F02DBE012384F8313068
:104B50006368ABB12846FFF750FE6368D4E90A6189
:104B6000D3E90002864271EB020209D36A68DB686E
:104B7000526863602368002BEAD090689847E7E7A3
:104B8000002384F831302846FFF78EFED9E710B5B0
:104B900086B0CDE904210393089C029000F0ECFD5F
:104BA0000298FFF72AFEDDE9033205990298009486
:104BB000FFF78EFF06B0BDE8104000F0F3BD38B53A
:104BC00005460C4600F0D8FD6A685368A34209D137
:104BD000DB6853602846FFF767FEBDE8384000F009
:104BE000E1BD1346002BF8D0DA68A242F9D1E268A1
:104BF000DA60F2E713B50446FFF7D4FE00F0BCFD1F
:104C00002046FFF7FAFD6368D3E90A01CDE9000108
:104C100000F0C8FDDDE9000102B010BD08B5FFF7E6
:104C2000E9FF08BD024B00221A7002F06FB900BF05
:104C3000C835002008B502F0B1F8024B01221A7005
:104C400008BD00BFC835002000487047804A0100F9
:104C5000024B1B680BB1024818477047B000002098
:104C6000804A0100F0B52C4E2C4F85B0002435460B
:104C7000214656F8042B3846013400F063FD0D2C14
:104C8000F6D1AB6C02936B6C01932B6C244C0093AC
:104C9000D5E90E23696B234800F054FD21682248B2
:104CA00000F050FDE16AA26AA36AA06A266BE76B76
:104CB000000CCDE901670090C3F307231B48D2B273
:104CC00000F040FDA36A1E0603D5616B184800F092
:104CD00039FDA36A180403D5A16B164800F032FD14
:104CE000EB6C190712D5144800F02CFD2B6DDA0778
:104CF0000FD5124800F026FDEB6C5B074CBF104847
:104D0000104805B0BDE8F04000F01CBD0E4800F0B2
:104D100019FD0E48EEE700BF0004FF1FAC4A01007A
:104D200000ED00E0BA4A0100094B0100174B0100F9
:104D3000664B0100744B0100824B0100914B010056
:104D4000C14B0100CD4B0100B14B01009E4B010056
:104D500007B504460D461A48012100F066FC68BB01
:104D6000184800F0EFFC302C19D0402C1CD0202C1F
:104D70001FD11548154C00F0E5FC154800F0E2FC89
:104D8000FFF770FF134800F0DDFC0D4B00221A7096
:104D90000023114900932A46204600F0B3FE0F4835
:104DA0000F4C00F0CFFCE8E70E480F4C00F0CAFCB7
:104DB000E3E70E480E4C00F0C5FCDEE70024E7E711
:104DC0009C360020D94B0100024C01003E01FF80BF
:104DD0002F4C01003A4C0100594C0100114C0100CC
:104DE0003F01FF801A4C01004001FF80254C01006B
:104DF0003D01FF8070B5144612686FF00046B24264
:104E00000546049807D238B1014618460CF0E4FC78
:104E1000431C05D1206070BD15B18A4238BFAB5428
:104E2000236801332360F6E72DE9F04F2DED028B67
:104E30008DB007469DF870309DF868B004938846A1
:104E400091460021142207A8DDE9184506910DF0CE
:104E5000D5FB049B002B14BF30232023BBF1010F93
:104E600008EE103A43D1002D41DA644265EB450566
:104E7000CDF808B000230393ABF10203DBB20DF1D0
:104E8000180A0593059B012B5AD8BBF1020F04F0B9
:104E90000F030CBF384A394A2409D35C8AF8003022
:104EA00044EA05742D09039B5E1C54EA05030AF1CC
:104EB000010A43D1029B23B3049B3BB11D9B00938A
:104EC0004A462D2341463846FFF794FF039E1B9B1D
:104ED00002369E421ADB049B3BB91D9B00934A4657
:104EE0002D2341463846FFF785FF013E1FE054EA77
:104EF000050302D000230293BCE730238DF818305D
:104F000001261B9B9E4212DA002302931D9B0093F5
:104F10004A4618EE103A41463846FFF76BFF1B9B96
:104F2000013BB3421B93F1DC029B002BD3D106ACB7
:104F3000C6B90DB0BDEC028BBDE8F08F0396A1E7BA
:104F4000204629460A220023FCF72EFA30328AF83E
:104F50000020204629460A220023FCF725FA0446B1
:104F60000D46A0E71D9B0093013E4A46A35D4146C6
:104F70003846FFF73FFFDBE7694C0100794C010041
:104F80002DE9F04F8BB01C460023149E09938B46ED
:104F90001546BAB1994215DB1ABF01F1FF3B98469D
:104FA0004FF001084FF0000A15F80A3073B948B104
:104FB000B8F1000F06D1099B5B4594BF00F8038050
:104FC00000F80B8009980BB0BDE8F08F252B40F05E
:104FD00032810AF1010915F80930203BDBB20D2BB3
:104FE00007D842F6090222FA03F3DB0748BF0AF1A9
:104FF000020915F809302A2B24D1002209F10107F2
:105000000434114615F807C0BCF12E0F05EB070359
:105010005ED193F801C0BCF12A0F2ED0C5F1010773
:105020004FF0000C0797079F1F4413F801EFAEF1F4
:10503000300E5FFA8EF9B9F1090F21D80A2707FB64
:105040000CECF0E7302B16D109F1010915F8093005
:10505000302BF9D00121A9440022A9EB050719F84A
:10506000013B303B5FFA83FCBCF1090FCAD80A2729
:1050700007FB0232F1E70021EDE754F804CB0237D9
:10508000EB5D682B27D1EB195B78682B0CBF722383
:10509000112303F00309B94415F80970642F01D0F6
:1050A000692F42D1822B30D1073424F007073C46C8
:1050B0007F6854F8083B0392CDE90416CDE9003728
:1050C0000122029209AA59460790FFF7ADFE6EE051
:1050D0006FF0004CD4E76C2B06D1EB195B786C2B8E
:1050E0000CBF82232123D4E76A2B08D07A2B08D067
:1050F000742B08D04C2B14BF00236123C9E7312344
:10510000C7E74123C5E75123C3E7112B54F8047BBC
:1051100007D0722B15BF3B467BB2DF1747F3C01792
:10512000C9E73BB247F3C037C5E7752F04D007F096
:10513000DF0EBEF1580F2FD1822B11D1073424F08E
:10514000070C6446DCF804C054F8083B0392752F42
:10515000CDE904161AD10022CDE9003C0292B1E754
:10516000512B54F804CB0DD0722B05D0112B06D047
:1051700063464FF0000CE9E75FFA8CF3F9E71FFA9A
:105180008CF3F6E763464FEAEC7CDFE7582F01D15A
:105190000322E1E70222DFE7632F0AD154F8043B40
:1051A0000096DBB209AA59460790FFF723FE07983D
:1051B0000AE0732F15D154F804AB0AEB0C079AF8E8
:1051C00000300BB1BA4502D109F1010AECE60096B4
:1051D00009AA594607900AF1010AFFF70BFE079842
:1051E000EDE7702F1CD154F8047B0096302309AAF8
:1051F00059460790FFF7FEFD07980096782309AA05
:105200005946FFF7F7FD0023CDE90333032302934B
:10521000FB17CDE900730798059609AA594654E78C
:105220000096252309AA59460790252F18BFD14675
:10523000FFF7E0FDBBE7009609AA59460790D14663
:10524000FFF7D8FDB3E700000FB41FB508490968A0
:1052500006AB896853F8042B009100206FF00041E1
:105260000393FFF78DFE05B05DF804EB04B07047C3
:10527000E00100200EB40FB505AB002153F8042B5C
:1052800000916FF000410393FFF77AFE04B05DF8E0
:1052900004EB03B0704713B500240094FFF770FED1
:1052A00002B010BD024B1B6803B11847704700BF26
:1052B0000836002007B5019000F05EFA019803B0AF
:1052C0005DF804FB07B5019000F06CFA019803B09B
:1052D0005DF804FB6FF0150070476FF01500704724
:1052E00008B5024902488E2200F070F9894C01008D
:1052F000BA4C010010B504460846FFF77BFCC4E930
:105300000001204610BD000010B50446FFF764F907
:1053100020460A4B40F8203BA169FFF7EBFFD4E998
:105320000823C4E90A2300220023C4E90C23002334
:10533000C4E90E3384F84030204610BDEC4C010027
:105340004FF0FF30704738B590F83F5004460DB12C
:10535000FFF7C6FFFFF760F994F84030A5872BB13F
:1053600084F84050BDE8384000F0E0BC38BD10B5CE
:10537000044601F1300000F061F9C4E90001204663
:1053800010BD10B589690446FFF7B4FF204610BD73
:10539000D0E90C32013342F10002C0E90C32D0E90D
:1053A0000A3213F57A7342F10002C0E90A327047FB
:1053B000D0E90A2312F57A7243F10003FFF722B90C
:1053C00037B50D46044689696846FFF793FFD5E96E
:1053D0000A3200980199C01A61EB0201B0F57A7F98
:1053E00071F1000306D200220023C4E90023204605
:1053F00003B030BDB0F5FA6F71F1000301D20122A4
:10540000F2E700294FF47A724FF00003D8BF002171
:10541000FBF7CAFFC4E90001E9E7000091F83F305B
:10542000F7B505460C4613B991F83C7027B11249FF
:105430001248E52200F0CAF86846FFF7C1FFDDE92F
:1054400000364FF47A70A763A3FB007200FB0622BC
:10545000D4E90A10C91942EB0002C4E90A12D4E9DE
:105460000C125B1842EB06022846C4E90C32C5E96F
:10547000003203B0F0BD00BF894C0100C44C0100F4
:10548000F0B51E4690F83F3085B00446174623B16C
:1054900020492148582200F099F890F83C305BB937
:1054A000014602A8FFF7BAFF029BBB42039BB34130
:1054B00004D3012384F83D3005B0F0BD214602A895
:1054C000FFF755FF4FF47A73A7FB032503FB065341
:1054D000D4E9081594F8400052184FF0010143EB4D
:1054E0000503A18760B9A069006890F8200038B969
:1054F00084F84010CDE9002300F002FCDDE9002330
:105500000021204684F83E1005B0BDE8F040FFF7CA
:1055100079B800BF894C0100BA4C0100024B4FF032
:1055200080625A60704700BF00ED00E008B50121BD
:10553000383000F071F808B1FFF7F0FF08BD012323
:1055400010B580F83F30836B04460BB1FFF7E6FFE0
:105550002046FFF72DFF10BD90F83C3010B50446F3
:105560004BB1002380F83C3090F83E3013B9012352
:1055700080F83D3010BD90F83F30002BFAD0836B9F
:1055800001338363FFF7CAFF2046FFF701FF204680
:10559000FFF70EFFEEE70000024B4FF000725A607B
:1055A000704700BF00ED00E010B50446FFF734F887
:1055B000002384F83F30FFF7EFFF10BD0CF0F2BC82
:1055C0000DF024B90CF08AB90BF0BEBE07B50B463E
:1055D000009201460022014800F094FA4401FF8045
:1055E00003460122D3E84F0FC3E8412FC0B2002980
:1055F000F8D17047D0E85F3F5B18C0E8523F002AFF
:10560000F8D198B27047D0E85F3F5B1AC0E8523FCC
:10561000002AF8D198B27047034653E8000F401AA9
:1056200043E80002002AF8D170470346D3E84F0F41
:10563000C3E8421FC0B2002AF8D1704713B5044630
:1056400000F09AF8D4E90001CDE9000100F0AAF8D1
:10565000DDE9000102B010BD07B500F08DF841F2A0
:10566000160101A8FFF758F8124D0424012101A8E2
:1056700003F0AEF8284600F095FE002101A803F0E3
:10568000A7F8284600F08EFE013CEFD10A4E042414
:10569000012101A803F09CF8304600F083FE0021B0
:1056A00001A803F095F8304600F07CFE013CEFD1F4
:1056B000DBE700BFF0490200801A060073B5002244
:1056C00001460446022000F0ABFC0D2600F054F821
:1056D0000022254614F8013B23B902B0BDE8704012
:1056E00000F060B80A2B09D10D2A07D001220DF174
:1056F000070102208DF8076000F092FC0122294684
:10570000022000F08DFC14F8012CE2E700B5A3B0F4
:1057100002460B4601A88421FFF7BDFD832806D968
:10572000074B1A681B79CDF883208DF88730002845
:1057300002DD01A8FFF7C2FF23B05DF804FB00BF44
:10574000F04C01000FB407B504A951F8040B019106
:10575000FFF7DCFF03B05DF804EB04B07047EFF334
:105760001080C04300F001007047EFF3058000385F
:1057700018BF01207047000008B5FEF76DFF064A0C
:105780001368591C04D1054905483F22FFF71EFF45
:105790000133136008BD00BF0C360020F54C01003A
:1057A000294D0100044A136823B1013B13600BB972
:1057B000FEF764BF704700BF0C36002008B50B48E9
:1057C000FFF70EFF28B1FFF7D7FFBFF34F8F20BFC2
:1057D000FDE7FFF7CAFF08B1FFF73EFFFFF7BFFF86
:1057E0000028F9D0012000F06FFD00BF58360020DE
:1057F0002DE9BF43464C0F462168C1F34173032B8B
:105800000CBF4D428DB2C1F30743814690464148DB
:105810002A46FFF797FF6FF498731D44132D0FD896
:10582000DFE805F00A585B5E6167646A0E0E0E0ED3
:105830000E0E0E0E0E0E0E6DA1683748FFF782FF9A
:105840004846FFF73BFF61683448FFF77BFF4FB1E5
:105850003348FFF733FF3846FFF730FF3148414602
:10586000FFF770FFA1683048FFF76CFF23682F4AED
:105870001A44012A05D92E4A934202D0033A934290
:1058800041D1A06820B1C06C80F00800C0F3C00016
:10589000E368002B39D05968264A002908BF114611
:1058A000E2690392A26902926269019222690092FE
:1058B000214D224A002818BF2A462148FFF742FFFF
:1058C00021682048FFF73EFF1F4804B0BDE8B04301
:1058D000FFF738BFA1681D48B0E7A1681C48ADE7D5
:1058E000A1681C48AAE7A1681B48A7E7A1681B4854
:1058F000A4E7A1681A48A1E7A1681A489EE71A48D8
:10590000FFF720FF9CE70020C2E70A49C8E700BF75
:105910005C3600206F4D0100C04D0100684E010053
:10592000794E0100814E0100854E0100C2FE007FCC
:105930004001FF805A4D0100644D0100584C0100A8
:10594000994E0100F24E01003F4F0100D64D01007B
:10595000E64D0100F54D0100084E01001C4E01000E
:10596000304E01003F4E0100554E010070470000CF
:1059700070B52C4C90B034EA200428BF04460D4684
:10598000164600213C2201A80CF038FE264B00945C
:105990002344012B029505D9244B9C4202D0033BA2
:1059A0009C4237D1EB6B01936B6B0793204B5B6988
:1059B0000393DA6B04925A6B1B6B05920693FFF705
:1059C000DBFE1C4A13680133012B13600BD16D46BB
:1059D0000FCD194C0FC40FCD0FC40FCD0FC495E8D8
:1059E0000F0084E80F006C460FCC144D0FC50FCC90
:1059F0000FC50FCC0FC594E80F0085E80F00104BC2
:105A00001B68A5F130004BB19847FFF7CBFE002093
:105A100010B070BD0196CDF81CD0C7E7FFF7A6FF08
:105A2000F3E700BF0101FF80C2FE007F4001FF805D
:105A30000400002010360020183600205C360020BC
:105A4000143600200FB41FB50D48CDF804E0012135
:105A5000FFF7EBFD019A044680B901460948FFF7BC
:105A600087FF094822462146FFF7C2FE069807A98C
:105A70000391FFF74BFE0548FFF720FEFFF79EFE60
:105A80009C3600200001FF80594F0100574C010057
:105A90007047000038B5164CD4F88030002B25DA5A
:105AA0003C2104F18000FEF7B7FAD4F8BC30834201
:105AB0001CD1D4F8B830CBB90E4B012504F18000CD
:105AC0001D70FFF7E5FFD4F8B430002B0EDD3C214C
:105AD00004F18000C4F8B850FEF79EFAD4F8B43050
:105AE000C4F8BC00002B01DDFFF768FE002038BDC4
:105AF0000004FF1F59360020014B1878C0B27047D0
:105B00009C36002080B506460C4627480121F04609
:105B100017461D46FFF789FD48B9424639463046CB
:105B2000FFF726FF029A29462046FFF761FE1F4E27
:105B30001F48204C1E4D3C21FEF76EFAD6F8BC30B3
:105B400083420ABFD6F8B4300123013363633C219A
:105B500000232046A363FEF75FFAE063FFF70CFE25
:105B60000FCC0FC50FCC0FC50FCC0FC594E80F009D
:105B700085E80F00FFF716FE0F48FFF7E3FDD6F8A4
:105B8000B410002902DD0D48FFF7DCFDBFF34F8F95
:105B90000B490C4BCA6802F4E0621343CB60BFF3BD
:105BA0004F8F00BFFDE700BF9C3600200004FF1FA1
:105BB0008004FF1F5C3600206E4F0100A14F0100E2
:105BC00000ED00E00400FA0538B5064C23683BB947
:105BD000FEF7C0FD044D01462846FFF795FB256002
:105BE000206838BDE8360020A036002008B583685C
:105BF00023B9054B1B6893F83D0008BDC068984762
:105C00000028F6D0F9E700BFE8360020F7B5194FB5
:105C100004464FF0FF356FF000462046FFF7E6FFE1
:105C200030BBD4E90023B34208BFAA4202D038688F
:105C3000FFF726FC01A8FFF73DFB2046FFF7D6FF44
:105C400098B9D4E90023B34208BFAA4207D100F0B3
:105C500091F801A8FFF736FBBFF36F8FDDE73B68D4
:105C600093F83C30002BF2D1F3E701A8FFF72AFBB1
:105C700003B0F0BDE836002030B587B0CDE902238F
:105C80000A9B0C4D04930B9B05930446FFF79CFF66
:105C900002A8FFF7BBFF2868FFF755FB6846296895
:105CA000FFF7BCFBDDE900232046C4E9002307B071
:105CB00030BD00BFE83600202DE9F041DFF83C8020
:105CC00086B005460E4604A8D8F800101746FFF720
:105CD0004EFBD8F80020DDE90443926BA41A63EB75
:105CE000E2732A1943F1000302A8CDE90067FFF728
:105CF000C3FF0298001B06B0BDE8F081E836002023
:105D000013B5074C01212046FFF774FC034628B960
:105D10000090228803490448FFF7F4FE02B010BD4A
