:020000040800F2
:100000000000032075560008C55600089139000805
:10001000973900089D390008A33900080000000046
:100020000000000000000000000000005D05000866
:10003000C556000800000000F50500080506000888
:10004000C5560008C5560008C5560008C556000824
:10005000C5560008C5560008C5560008C556000814
:10006000C5560008C5560008C5560008C556000804
:10007000C5560008C5560008C5560008C5560008F4
:10008000C5560008C5560008C5560008C5560008E4
:10009000C5560008C5560008C5560008C5560008D4
:1000A000C5560008C5560008C5560008C5560008C4
:1000B000C5560008C5560008C5560008C5560008B4
:1000C000C5560008C5560008C5560008C5560008A4
:1000D000C5560008C5560008C5560008C556000894
:1000E000C5560008C5560008C5560008C556000884
:1000F000C5560008C5560008C5560008C556000874
:10010000C5560008C5560008C5560008C556000863
:10011000C5560008C5560008C5560008C556000853
:10012000C5560008C5560008C5560008C556000843
:10013000C5560008C5560008C556000810B5054C40
:10014000237833B9044B13B10448AFF30080012383
:10015000237010BD600B00200000000068640108DF
:1001600008B5034B1BB103490348AFF3008008BD3A
:1001700000000000640B002068640108A3F5803AC9
:10018000704700BF174B002B08BF134B9D46FFF76E
:10019000F5FF00218B460F461348144A121A12F03D
:1001A0001DFD0E4B002B00D098470D4B002B00D0AF
:1001B00098470020002104000D000D48002802D0BF
:1001C0000C4804F0EBFC12F047F82000290002F084
:1001D000C9FA04F0DFFE00BF0000080000000000C4
:1001E000C126000800000320600B0020383C0020DE
:1001F0009D4B000800000000704703681847036823
:10020000084618471FB500F0A7F9244924480EF006
:1002100005FF044630B1234812F0BAFD4FF0FF301D
:1002200004B010BD204812F0B3FD204B0393204BC7
:100230000294CDE9003404AB13E90F001D4C84E8AF
:100240000F00214616480EF060FF154803210EF0FE
:1002500005FF08B11848DFE71848032103F0BCFE8A
:100260000F480EF00CFF08B11548D5E7154812F0FD
:100270008FFD0B480EF0E3FE014630B110F57E7F96
:1002800003D0114803F0A8FEC8E7104812F080FD23
:10029000024810F0E6F80020C2E700BFE813002093
:1002A0007C0B002094410108B5410108FF010008C2
:1002B0005D04000844140020D841010801420108EF
:1002C000264201084C420108754201089742010884
:1002D00070B5212390B00C22CDE90D3201264FF0EC
:1002E000FF332222CDE90B63CDE90932CDE9073393
:1002F00006932D211023CDE9043111201423CDE9DB
:100300000230184D0F232024CDE90034164C13235E
:1003100006220721284609F0BDFC2246134928463B
:1003200004F03AFC124B1E60124E00224FF4027190
:10033000304610F081F830460F4E1049224604F046
:100340002BFC294630460EF039FE22460C49304639
:1003500004F022FC0B4B0022DA60DA61DA6210B0A2
:1003600070BD00BF7814002040010020A19F00084C
:1003700074140020E81300207C0B002057040108AF
:10038000EFEF0008441400201FB5274800210AF0B1
:1003900093FC264B26481A68023211461A600392D3
:1003A00003F01AFE039A2349234803F02BFE01238E
:1003B00000930F2183B2204A20480EF070FE011EE8
:1003C00026DA6FF47A7399420AD11D4812F0E0FCE4
:1003D0001C48042110F0F9F8044638B904B010BDE7
:1003E000194804B0BDE8104003F0F6BD174B036098
:1003F00040F6B83110F0D5FA2046154910F0D4FA7D
:1004000014491048224604B0BDE8104010F09BB9D2
:10041000114803F0E1FD08481E22002104B0BDE8A8
:10042000104012F0DBBB00BF7814002074140020D1
:10043000B8420108D64201088E1A00207C0B002029
:10044000EF420108E8130020034301088903000874
:10045000F9010008FB01000820430108F0B501463E
:1004600085B00B2830D8DFE800F0060A1315151503
:10047000151D4F4F5557294812F08AFC0DE02848AA
:100480000FF0F3FF274805B0BDE8F04012F080BC44
:100490002548F1E7254803F09FFD05B0BDE8F04091
:1004A000FFF772BF224812F073FC03AB009321499F
:1004B00021480DF10B031E220EF00DFE041E05DA7D
:1004C0001E48214603F088FD05B0F0BD9DF80B10D5
:1004D0001B48184F1B4E224603F07EFD0025EBB251
:1004E0009C4205F1010504DDF95C304603F074FD22
:1004F000F5E7154812F04CFC0E481E22002105B00D
:10050000BDE8F04012F06ABB104805B0BDE8F0400D
:1005100003F062BD0E48B6E70E48ADE74A43010856
:10052000E81300206743010886430108AA43010835
:10053000D4430108701A00207C0B0020FE43010800
:100540001E4401083F440108FF41010845440108D9
:100550006A44010888440108704700001EF0040F37
:100560000CBFEFF30880EFF30980816911F8021CDA
:1005700091BB01B590E80F10E047BDE800508CE852
:100580000300244B93E80600914208BF704741B92D
:100590001EF0100F10D12049086820F001000860FB
:1005A0000AE02CE9F00F1EF0100F08BF2CED108AA6
:1005B000C1F838C081F822E01A6092F82210906BDE
:1005C00061F0FF0E1EF0100F08BFB0EC108AB0E80B
:1005D000F00F80F309887047104A13689942FAD8DF
:1005E00001B552F821C00FC8E047BDE80050CCF873
:1005F0000000704701B501F0E3FABDE80140EFF3F8
:10060000098CBEE701B501F0A3FABDE80140EFF3A4
:10061000098CB6E75801002034EF00E0644501087A
:1006200008B5014610B1132001F018FE002008BDE6
:1006300008B5EFF305832BB9EFF3108313B9EFF38C
:10064000118333B16FF0050000F0D5F96FF00500AC
:1006500008BDDFF808C000DFFAE700BF2106000888
:10066000EFF310832BB9EFF31180003818BF01208E
:10067000704701207047000038B50546A0B1846876
:1006800002686CB114F0030302D1C1680F2926D8A7
:100690006FF00801002002F057F90024204638BD11
:1006A000C368002BF4D11546104BD3F8900078B1F5
:1006B00000F00FFC0446A0B10123A3700023C4E99D
:1006C0000233F322094B2270094A65605A66E5E756
:1006D000D3F880000122102100F088FBEAE71546DC
:1006E000EBE76FF0040102F02FF9D7E74401002097
:1006F000CD07000870B5054610B10378F32B07D07D
:1007000028466FF0030102F01FF96FF0030070BD7F
:10071000836863B1284601F0A1FB00226FF002015B
:1007200001F04CFCA8680028F4D101F01BFCAB7868
:10073000002613F001032E700FD0094BD3F8904020
:10074000294624B1204600F0DEFB3046DFE7D3F82F
:10075000800000F07FFB2046D9E71846D7E700BFAE
:1007600044010020930710B502F0010422D400F1E7
:100770000C0384B153E8000F00EA01028A4203D05F
:10078000BFF32F8F002005E020EA010243E8002498
:1007900004B1EFE710BD53E8000F084203D1BFF3E7
:1007A0002F8F002005E020EA010243E8002404B175
:1007B000F1E7EFE7C06801EA00031CB18B4218BF04
:1007C0000020E7E7002B08BF0020E3E7F8B58468C6
:1007D000054604B9F8BD94F82320616AA768284645
:1007E000FFF7C0FF064638B1204601F040FB00226B
:1007F0003146204601F0E2FB3C46EAE7F8B50D46FB
:1008000017461E46044620B10378F32B01D1002978
:1008100007DA20466FF0030102F096F86FF003004C
:10082000F8BDFFF79FFF0028FAD186B1314643207B
:1008300001F014FD40B1074B5E692046314601F0DE
:10084000FBFA756286F823706FF00100E8E76FF03D
:100850000200E5E7440100202DE9F041064620B101
:100860000378F32B01D1002909DA6FF00301304638
:1008700002F06AF86FF003052846BDE8F08100F148
:100880000C0353E8002F42EA010543E8005000B191
:10089000F7E7B4681CB9204601F064FBECE794F874
:1008A0002320616AD4F808803046FFF75BFF0746D3
:1008B00078B194F823309B0756BF656A054620EA55
:1008C0000505204601F0D3FA00223946204601F002
:1008D00075FB4446DEE7000008B50246EFF30583EA
:1008E00033B100206FF0050102F02EF8002008BDA2
:1008F000FFF7B6FE0028F4D1DFF808C0104600DF8D
:10090000F5E700BF7906000838B502460D46EFF35B
:1009100005834BB192B96FF00301104602F014F851
:100920006FF00304204638BDFFF79AFE0028F1D18E
:10093000DFF830C0104600DF0446F3E71378F32BEE
:10094000E9D1002DE7DB02F10C0353E8001F41EA77
:10095000050443E8004000B1F7E7104601F078F9DC
:10096000E0E700BF59080008F8B504460E461746F0
:100970001D46EFF3058343B18CB920466FF00301A8
:1009800001F0E2FF6FF00300F8BDFFF769FE0028F9
:10099000F2D1DFF82CC020462B4600DFF4E72378A5
:1009A000F32BEAD1002DE8D1002EE6DB3A463146A2
:1009B0002046FFF7D7FE002808BF6FF00200E3E7EC
:1009C000FD07000808B50246EFF305833BB110466A
:1009D0006FF0050101F0B8FF6FF0050008BDFFF7EB
:1009E0003FFE0028F3D1DFF808C0104600DFF5E72E
:1009F000F506000870477047EFF310832BB9EFF34B
:100A00001180003818BF0120704701207047000096
:100A1000014BD868704700BF4401002070B5484CB6
:100A2000217A012900F08A8031B14FF0FF3001F0C6
:100A30007FFF4FF0FF3070BD424D9C2204F1080053
:100A400012F0CCF8D5E90B61EB68E3652B8AA4F8CA
:100A500054303046AB68236400F0B0F908B1C4F8F4
:100A60008060D5E90561304600F0A8F908B9D4F8EE
:100A700080606667D5E90761304600F09FF908B9E4
:100A8000D4F88060A667D5E90961304600F096F990
:100A900008B9D4F88060E6676E6B3EB1D6E90223F0
:100AA0003168304600F0F4F9C4F88460AE6B3EB1B2
:100AB000D6E902233168304600F0EAF9C4F88860CC
:100AC000EE6B3EB1D6E902233168304600F0E0F922
:100AD000C4F88C602E6C3EB1D6E9022331683046F2
:100AE00000F0D6F9C4F890606E6C3EB1D6E90223EE
:100AF0003168304600F0CCF9C4F89460AE6C3EB179
:100B0000D6E902233168304600F0C2F9C4F8986093
:100B1000EE6C3EB1D6E902233168304600F0B8F9F8
:100B2000C4F89C602D6D3DB1D5E9022329682846A3
:100B300000F0AEF9C4F8A0500123237200207AE738
:100B400044010020FC44010870B5264D2B7A012B8E
:100B500007D06FF0060001F0EBFE4FF0FF342046A7
:100B600070BD01F081FC10B94FF0FF30F3E71E4A71
:100B70001E4E1F497068FF2382F8223092F82230FF
:100B8000D26863F0FF03DB4314BFB3FA83F320237F
:100B9000C3F12003C2F30222934298BF531CFE22EA
:100BA00002FA03F3104ADBB2D37701F01DFF0446CB
:100BB0000028D9D101F06EFF286101F057FF0D48E0
:100BC00001F04CF901F0C4F9336813F0010F4FF054
:100BD000020303D083F314882B72C0E7032282F34D
:100BE0001488F9E74401002000ED00E0FC4401080E
:100BF000050600086001002010B5134C237A022B73
:100C000005D06FF0070001F093FE002010BD01F049
:100C100035FF01236372BFF34F8F0C4A5168C9003F
:100C200042BF4FF000615160A372E36A4BB1D869D3
:100C3000636C1BB11B69984228BF184604232372BA
:100C4000E4E74FF0FF30F3E74401002000ED00E05F
:100C5000F8B5214C237A042B05463BD1E3680344C5
:100C6000E360E36A53B106460127DA69B24225D848
:100C7000DF61B61A01F01EF9E36A13BB636C4BB176
:100C800001261869A8421FD81E61236D2D1A9847A6
:100C9000636CE3B902230020237201F063F900239F
:100CA0006372BFF34F8FA27A22B1A3720B4B4FF046
:100CB00080525A60BDE8F84001F0D8BE921BDA615C
:100CC000DCE7002ED1D1D9E7401B1861E2E7002D07
:100CD000D7D1DFE7F8BD00BF4401002000ED00E000
:100CE0007047000008B5FFF7FBFFEFF3058333B152
:100CF0006FF0050001F01CFE6FF0050008BDFFF766
:100D00007BFE0028F4D1DFF808C000DFF6E700BF63
:100D10001D0A000808B5EFF3058333B16FF0050035
:100D200001F006FE6FF0050008BDFFF765FE002824
:100D3000F4D1DFF808C000DFF6E700BF490B000878
:100D400008B5EFF305832BB16FF0050001F0F0FD5E
:100D5000002008BDFFF750FE0028F5D1DFF804C0E1
:100D600000DFF6E7F90B000808B50246EFF305834C
:100D70002BB1BDE808406FF0050001F0D9BDFFF7C9
:100D80003BFE0028F5D1DFF808C0104600DF08BDA3
:100D9000510C000808B5EFF3058313B1054BD86873
:100DA00008BDFFF729FE0028F8D1DFF80CC000DFEE
:100DB000F6E700BF44010020110A000810B598B101
:100DC00040EA010313F007030ED117290AD9016085
:100DD000083910220C18846042600B5081684A6008
:100DE000C3600123184610BD0023FBE7F0B503469E
:100DF00070B369B332F003002AD10F3121F007013B
:100E000003F10806344636686568301B25F0030593
:100E1000401B814203D930680028F3D1F0BD5F68E0
:100E20001D680F445F602B44083B5868874288BFA9
:100E30005F6063680A431BB9626004F10800EDE774
:100E400023F00303E018E650426020600830E5E735
:100E50000020E3E710B580B1C1B1A1F1080400F1B1
:100E600008030022A34209D1596821F00304416814
:100E7000091B41603AB95A60012010BD19681A4631
:100E800021B10B46EEE71B681360F5E70846F4E76F
:100E900030B5C0B189B1C2B1CBB10024C0E90142C3
:100EA00002FB01F41D190160C3604361056118462E
:100EB000013904D1A21A99500121084630BD851884
:100EC00005602846F4E70146F7E71146F5E71946BD
:100ED000F3E710B50346A8B100F1140252E8000F81
:100EE00010B9BFF32F8F04E0016842E8001404B189
:100EF000F4E738B1043353E8002F511C43E80014E1
:100F000004B1F8E710BD30B5F0B1C3688B421BD80F
:100F100003698B4218D900F114031A680A60BFF301
:100F20005F8F53E8002F0C689442F6D143E8001518
:100F300005B1F2E7043050E8003F5A1E40E80021B6
:100F400001B1F8E7002030BD6FF00300FBE7EFF3DD
:100F500010832BB9EFF31180003818BF01207047C0
:100F600001207047D1E9013223B19A608A681AB131
:100F700053607047C262F9E7036370472DE9F84F89
:100F80008846074600B131B96FF00301002001F037
:100F9000F1FC002477E0CE1C26F003060C36B0FAF4
:100FA00080F104D0B6FA86F30B441F2BECDD06FB70
:100FB00007FAF2B194683CB1A30702D1D368332B8E
:100FC00005D86FF00801E1E7D368002BF9D1D2E929
:100FD0000453D2F800903DB115F0030B01D19A45AE
:100FE00054D96FF00901D1E7002BFAD11CB19B460F
:100FF0000CE091461546274BD3F8A000D8B1FFF777
:1010000068FF0446A0B14FF0010B35BB214B002215
:10101000D86F5146FFF7EAFE0546C0B9BBF1000F95
:1010200006D01C4BD3F8A000214658B1FFF76BFF48
:101030006FF00401AAE7D3F8800001223421FFF702
:10104000D5FEDEE7D3F88000FFF704FFF0E7524655
:10105000002111F0C3FD4BF0020BFA232370002393
:10106000C4E90983C4E90B33A36032462B4684F8F4
:1010700002B0C4F80490394604F10C00FFF708FFF1
:10108000044B054A1A672046BDE8F88F002CE4D1CE
:10109000B1E700BF440100202911000810B500F19C
:1010A000280353E8002F12B9BFF32F8F04E0511E1D
:1010B00043E8001404B1F4E70AB9002010BDC06A87
:1010C00001220028F9D0811CD1E84F3FC1E8442F0C
:1010D00004B1F9E7DBB2002BF0D08068F1E7036BD5
:1010E00030B5E3B1CD780024DA78AA420FD31A469E
:1010F000C1E901248AB19160A4B16160283050E84F
:10110000003F5A1C40E8002101B1F8E730BD5A68A1
:101110001C46002AECD01346E6E7C162ECE7C1E9C1
:101120000133C1620163E9E7F8B5877804468FB3FC
:10113000C568014600272846FFF714FF277005F110
:101140000C042046FFF7DFFEAB68002B48D020469A
:10115000FFF7BFFE0446002842D0284600F07EFE7E
:101160003A460646394600F029FF304600F0D2FEE6
:101170006A6A8168064604F10C0011F019FCF92333
:101180002370A770F368E37021462846BDE8F84055
:10119000FFF7A5BF8568AB68002BF5D05B78832B84
:1011A000F2D1284600F05AFE3A460646394600F08B
:1011B00005FF304600F0AEFE06466A6A806804F11C
:1011C0000C0111F0F5FBF3680BB1E2781A70002303
:1011D0002370214605F10C00BDE8F840FFF793BEEF
:1011E000F8BD00002DE9F0410C461746984605462B
:1011F00018B10378FA2B00D141B928466FF00301EA
:1012000001F0B8FB6FF00300BDE8F0818368C3B163
:101210005B78832B15D100F021FE012206460021C8
:1012200000F0CCFE304600F075FE06466A6A806823
:10123000214611F0BDFBF0680028E5D007700020C2
:10124000E2E705F10C00FFF744FE064670B12146C7
:101250006A6A0C3011F0ACFB0024F9233370B470CF
:10126000F77031462846FFF73AFFE8E7B8F1000F7C
:1012700010D04146932000F0F1FF40B1074B2846C3
:10128000596900F0D9FDEFF30983C3E902476FF014
:101290000100B9E76FF00200B6E700BF440100208B
:1012A0002DE9F0410F4615469846044618B10378DB
:1012B000FA2B00D141B920466FF0030101F05AFB2F
:1012C0006FF00300BDE8F081FFF7E8FE0646002856
:1012D0003AD001462046FFF745FE626A06F10C014E
:1012E000384611F065FB0DB1F3782B70002504F141
:1012F0000C07357031463846FFF705FEA3680BB979
:101300000020DFE73846FFF7E4FD06460028F7D067
:10131000204600F0A3FD29460746012200F04EFEBC
:10132000384600F0F7FD626A8168074606F10C0056
:1013300011F03EFBF9233370B570FB68F370314652
:101340002046FFF7CCFEDBE7B8F1000F10D0414696
:10135000832000F083FF40B1074B2046596900F01D
:101360006BFDEFF30983C3E902756FF00100A9E794
:101370006FF00200A6E700BF4401002010B504464C
:10138000EFF3058333B100206FF0050101F0F2FAAD
:10139000002010BDFFF7DBFD0028F4D1DFF808C006
:1013A000204600DFF5E700BF7D0F00082DE9F04182
:1013B00006460F4690461C46EFF305834BB196B99F
:1013C00030466FF0030101F0D5FA6FF00300BDE87D
:1013D000F081FFF7BCFD0028F1D1DFF84CC03046AA
:1013E000234600DFF3E73378FA2BE9D1002FE7D06B
:1013F000002CE5D106F10C00FFF76BFD054680B12E
:10140000726A39460C3011F0D3FAF9232846C5E93F
:1014100001762B70AC7085F8038000F019FC204633
:10142000D5E76FF00200D2E7E5110008F8B50446F1
:101430000F4616461D46EFF3058343B18CB920468F
:101440006FF0030101F096FA6FF00300F8BDFFF7AB
:101450007EFD0028F2D1DFF848C020462B4600DF91
:10146000F4E72378FA2BEAD1002FE8D0002DE6D15B
:101470002046FFF713FE054670B100F10C01626AC9
:10148000384611F095FA0EB1EB7833702846EC60CF
:1014900000F0DEFB0020D9E76FF00200D6E700BFC6
:1014A000A1120008EFF310832BB9EFF3118000387D
:1014B00018BF0120704701207047000070B5A8B325
:1014C0008468D0E900566CB114F0030302D1C268FD
:1014D0001B2A1AD86FF00801002001F03BFA002403
:1014E000204670BDC368002BF4D1124BD3F8940092
:1014F00030B9D3F8800001221C21FFF777FC01E00E
:10150000FFF7E7FC044660B10123F522A370002336
:10151000C4E90233C4E904332270E67065602376BF
:10152000DEE76FF0040101F015FAD9E7054606463B
:10153000DBE700BF44010020284B70B55D6904461D
:101540000E4635B96FF0070101F004FA4FF0FF3095
:1015500070BD10B10378F52B07D020466FF0030162
:1015600001F0F8F96FF00300F2E7037E53B9C0E928
:101570000353EB6A436103B11861EC6201232376E4
:101580000020E5E7C278D1070DD5C168A9420AD18C
:10159000FF2B06D16FF00F0101F0DCF96FF00200B4
:1015A000D6E70133EBE7002EF8D093070AD5E068C1
:1015B00095F9203090F920209A4203DA80F8203003
:1015C00000F05EFC3146532000F048FE18B1294679
:1015D000204600F031FC6FF00100B9E74401002023
:1015E00038B52F4B5A69044632B96FF0070101F044
:1015F000B1F94FF0FF3038BD10B10378F52B07D0AB
:1016000020466FF0030101F0A5F96FF00300F2E747
:10161000037E33B96FF00E0101F09CF96FF0020008
:10162000E9E7C168914202D06FF00D01F4E7013B98
:10163000DBB2037633BB43690BB1016919612169E0
:1016400011B34B61E3789B0705D592F92110D36A5A
:10165000E3B982F82010A3688BB1204600F0FEFBAE
:1016600000220546114600F0A9FC00232361EB6A25
:10167000E560636103B11C610123EC622376002005
:1016800000F070FC0020B6E7D362DBE7986820B179
:1016900090F920008142B8BF01465B69D8E700BFDE
:1016A0004401002070B5044610B10378F52B07D033
:1016B00020466FF0030101F04DF96FF0030070BD9B
:1016C000037ED3B16369C0680BB122691A612269D4
:1016D0001AB35361E3789B070BD590F92130C26AA6
:1016E000EAB990F920209A4203D080F8203000F027
:1016F000C7FBA068E0B900F035FCA078002610F028
:1017000001002670DBD0124BD3F894502146C5B1AE
:101710002846FFF7F8FB3046D1E7C362DAE7916865
:1017200021B191F920108B42B8BF0B465269D7E71F
:10173000204600F093FB00226FF0020100F03EFC17
:10174000D7E7D3F88000FFF785FB2846B7E700BF4F
:10175000440100202DE9F0410446002601270CB980
:10176000BDE8F081E378D4F814801B0712D5A36894
:1017700026767BB1204600F071FB0022054611461B
:1017800000F01CFCEB6A6361C4E9035603B11C6101
:10179000EC6227764446E2E710B4C3789B071AD57B
:1017A000C06890F92130C26A94688C4208BF8C6886
:1017B00024B194F92040A342B8BF23465269002ABD
:1017C000F2D190F920209A4205D080F820305DF8BF
:1017D000044B00F055BB5DF8044B704708B502465A
:1017E000EFF3058333B100206FF0050101F0B2F88B
:1017F000002008BDFFF756FE0028F4D1DFF808C02E
:10180000104600DFF5E700BFBD14000808B502462A
:10181000EFF305833BB110466FF0050101F09AF834
:101820006FF0050008BDFFF73DFE0028F3D1DFF89B
:1018300008C0104600DFF5E73915000808B5024674
:10184000EFF305833BB110466FF0050101F082F81C
:101850006FF0050008BDFFF725FE0028F3D1DFF883
:1018600008C0104600DFF5E7E115000808B502469C
:10187000EFF305833BB110466FF0050101F06AF804
:101880006FF0050008BDFFF70DFE0028F3D1DFF86B
:1018900008C0104600DFF5E7A5160008EFF3108337
:1018A0002BB9EFF31180003818BF012070470120D9
:1018B00070470C30D0E85F3F13B9BFF32F8F04E0BF
:1018C0005A1EC0E8512F01B1F4E798B2003818BF92
:1018D0000120704730B500F10C02C189D2E85F3FAA
:1018E000994202D8BFF32F8F04E05C1CC2E8554F29
:1018F00005B1F3E7C0899BB2984294BF0020012054
:1019000030BD0000F8B515464FF6FE73421E9A42F0
:1019100006460F4601D8884207D26FF00301002027
:1019200001F01EF800242046F8BD7DB1AC682A689D
:1019300044B114F0030302D1E9680F2922D86FF0F3
:101940000801ECE7EB68002BF9D11546114BD3F8F1
:10195000980080B1FFF7BDFA0446A8B10123A37037
:101960000023F622A3600B4B22700B4A6560A7810F
:10197000E6819A66D7E7D3F8800001221021FFF7AD
:1019800035FAE9E71546EAE76FF0040100F0E8FFF1
:10199000C9E700BF440100200D1A000870B50546D4
:1019A00010B10378F62B07D028466FF0030100F042
:1019B000D7FF6FF0030070BD836863B1284600F065
:1019C0004DFA00226FF0020100F0F8FAA868002832
:1019D000F4D100F0C7FAAB78002613F001032E70A3
:1019E0000FD0094BD3F89840294624B12046FFF781
:1019F0008AFA3046DFE7D3F88000FFF72BFA20465B
:101A0000D9E71846D7E700BF44010020836810B526
:101A100004465BB1FFF74DFF40B1204600F01EFACF
:101A20000022BDE81040114600F0C8BA10BD38B51C
:101A3000054610B10378F62B07D028466FF0030156
:101A400000F08EFF6FF0030038BD84683CB100F0F9
:101A500005FA0122002100F0B1FA0020F4E7FFF7B7
:101A600039FF38B928466FF0100100F079FF6FF0A8
:101A70000200E9E72046E7E710B50446EFF30583E7
:101A800033B100206FF0050100F06AFF002010BDA7
:101A9000FFF704FF0028F4D1DFF808C0204600DF7C
:101AA000F5E700BF0519000810B50446EFF30583FC
:101AB00043B184B920466FF0030100F051FF6FF08D
:101AC000030010BDFFF7EAFE0028F2D1DFF830C0B6
:101AD000204600DFF5E72378F62BEBD12046FFF711
:101AE000F9FE20B1204600F0B3F80020E9E72046D7
:101AF0006FF0100100F034FF6FF00200E1E700BF6B
:101B00002F1A000808B50246EFF305833BB11046D3
:101B10006FF0050100F024FF6FF0050008BDFFF72E
:101B2000BDFE0028F3D1DFF808C0104600DFF5E75E
:101B30009D19000810B5D0E85F3F5A1C914200D8AB
:101B40000022C0E8542F04B1F5E798B210BD0000A0
:101B500038B51A4C00F098FFE3680133E360236D59
:101B600003B1984700F0A6F9002000F0FBF9236CC0
:101B70001BB3A26BA1698A4202D0A163E3631CE09C
:101B8000E36BB3B9237A022B17D1656AADB195F92E
:101B9000201092F9203099420FD1284600F067F9C1
:101BA000A06B00F07FF9284600F0D2F9236CA56302
:101BB000E4E7013BE363002BE4D038BD440100209F
:101BC00070B5224C04F1560504F15A06B4F85410CD
:101BD000D5E85F3F13B9BFF32F8F04E05A1EC5E865
:101BE000502F00B1F4E79BB25BB33046FFF7A2FF82
:101BF000E36D53F8200020B30378F13B082BE5D8C0
:101C000001A252F823F000BF2D1C0008CD1B0008D4
:101C1000331C0008CD1B0008CD1B0008371C000832
:101C20003B1C0008CD1B00083F1C0008236E984792
:101C3000CCE7636EFBE7A36EF9E7E36EF7E7236F8C
:101C4000F5E7BDE87040002000F08CB944010020A9
:101C500070B5164C0546B4F8541004F15602D2E89B
:101C60005F3F994202D8BFF32F8F04E0581CC2E8AF
:101C7000560F06B1F3E79BB2994205D829460220D8
:101C8000BDE8704000F016BE04F15800FFF752FFA7
:101C9000E36D43F82050637A23B9054B4FF080522F
:101CA0005A6070BD0123A372FBE700BF440100200E
:101CB00000ED00E0EFF310832BB9EFF31180003853
:101CC00018BF01207047012070470378F12B00D026
:101CD0007047C068F9E7000010B50A4A90F9201073
:101CE00001234370536A1C321BB193F920408C428C
:101CF00005DCC0E90232906003B1D86010BD1A461D
:101D00009B68F1E744010020014B5869704700BF10
:101D100044010020024B586900B1806A704700BF3F
:101D20004401002010B50023038083789A070446FD
:101D300008D513F0100F016B0E4B0FD0D3F88400B1
:101D4000FFF7E1F8A378DB0712D50A4BD3F8880038
:101D5000214638B1BDE81040FFF7D5B8586FFFF7FE
:101D600079F8EFE7BDE81040D3F88000FFF772B8CC
:101D700010BD00BF4401002008B500F001FEDFF8EF
:101D800010C000DF4FF0FF31002000F0D7FDFEE76C
:101D90004123000810B5C469621CD0E904310AD19E
:101DA00003B1596142691AB113610023436101E033
:101DB000064A136310BD1BB1DA6959612244DA6126
:101DC0004269002AF0D1014AD362F3E744010020BE
:101DD000930710B502F0010422D400F1280384B166
:101DE00053E8000F00EA01028A4203D0BFF32F8FAD
:101DF000002005E020EA010243E8002404B1EFE7F7
:101E000010BD53E8000F084203D1BFF32F8F00200D
:101E100005E020EA010243E8002404B1F1E7EFE71E
:101E2000806A01EA00031CB18B4218BF0020E7E77B
:101E3000002B08BF0020E3E710B591F9202083684C
:101E40001BB193F92040944205DAC1E90230816068
:101E500003B1D96010BD18469B68F1E783689A68A2
:101E6000826002B1D0600022DA6018467047C26812
:101E70002AB18368936003B1DA600023C3607047BE
:101E800010B5044664B12378F12B07D0FFF7EFFFBC
:101E900001462046BDE81040FFF7CEBFE468F1E7F9
:101EA00010BD00000123014643700148FFF7C4BF85
:101EB0006001002038B5164DEC6A44B3E369013B7C
:101EC000E36123BB6378732B06D009D8532B0BD067
:101ED00003F0DF03432B0DD12046FFF7F6FE09E0A8
:101EE00003F0EF03832BF6E72046FFF7EEFE2146D3
:101EF000FFF752FC2046FFF7BAFFFFF7D3FF246934
:101F000024B1E369002BDDD000236361EC6238BDAE
:101F10004401002090F82230826B13F0100F0CBFA8
:101F20006020202010447047074B596951B10B6B5A
:101F30008A6B934203D21A68044B9A4202D0012062
:101F400000F0B8BC704700BF44010020A52E5AE243
:101F500008B502234370024B9861FFF7E5FF08BD07
:101F60004401002010B5144B04461A7A5969A0B9EF
:101F7000022A1FD15C6AECB194F9202091F920303B
:101F80009A4217DD2046FFF772FF0846FFF7A4FECE
:101F90002046BDE81040FFF7DBBF022A05D190F9CB
:101FA000202091F920309A42EFDC2046BDE8104015
:101FB000FFF778BF10BD00BF4401002038B50546CB
:101FC0001446FFF7A7FF01602846FFF7E3FE1CB1A8
:101FD000BDE83840FFF7C6BFBDE83840FFF762BF35
:101FE00010B54378332B04460CD1416A90F8232076
:101FF000FFF7EEFE014628B120460022BDE8104062
:10200000FFF7DCBF10BD70B5044620B10378F12B9B
:1020100001D1002908DA6FF003012046FEF7EAFC3F
:102020006FF00305284670BD4378042B06D16FF08E
:102030000201FEF7DFFC6FF00205F3E700F1280371
:1020400053E8002F42EA010543E8005606B1F7E7DE
:102050004378332BE6D1416A90F82320FFF7B8FE8E
:1020600001460028DED094F823309B0756BF656AEE
:10207000054620EA050501222046FFF79FFFD1E72C
:102080002DE9F04F85B00391019028B96FF003015D
:1020900000F054FC0024BEE0002A4AD0966846B105
:1020A000B00702D1D368432B06D86FF00801002097
:1020B000EEE7D368002BF8D1D2E90449976944B11F
:1020C000610703D1B9F1000F40F0B1806FF00A0150
:1020D000EDE72FB1791E372903D96FF00B01E6E741
:1020E0001827B9F1000F40F0A680D2E900B302939F
:1020F00066BB554DD5F8880008B3FEF7EAFE0646E4
:1021000000283DD04FF00108DFF83CA1002C42D15F
:10211000B9F1000F1DD14D4BDAF88400D3F854907B
:10212000B8B1FEF7D6FE0546E0B148F010083446D7
:1021300023E093461446182791460292D9E7D5F832
:10214000800001224421FEF751FED8E74FF000083D
:10215000DAE7DAF8740022464946FEF747FE0546FC
:102160000028E4D1B8F1000F13D0DAF888503146D6
:102170004DB12846FEF7C7FE002548F0020864B9B5
:102180006FF0040193E7DAF88000FEF763FE2C4657
:10219000F3E74546F1E72546344640F2F112228046
:1021A0000022C4E90222C4E90422C4E90622C4E9E7
:1021B0000922C4E90B25A9F14002029BE3702A44DD
:1021C000019BA2637FB2224AE363FD2184F802806F
:1021D000C4F804B084F8207084F821706184C4F8D5
:1021E00034902A60194A1268530718D4A36B34221A
:1021F0001846002110F0F2FC164A4263019A8263ED
:102200004FF08072C263039A0262134BCAF86030C7
:102210002046FFF7A7FE204605B0BDE8F08F29F065
:102220000302443ACC21281D10F0D8FCDEE7002F31
:102230007FF450AF182719F0070F7FF447AFB9F1BB
:10224000470F3FF652AF41E744010020FC4401082C
:10225000A52E5AE2791D0008E11F000838B51E4C72
:10226000237A022B34D1636A002B33D063694A1C72
:10227000587015D1226B00216AB94FF0FF30C3E9C5
:102280000421D86151B10B611448FFF7E7FDFFF756
:102290005FFE012038BD11461269EDE72363F3E7C5
:1022A000E26A002012B1D569A9420BD2C3E9042029
:1022B000D96158B10361002AE6D0D0695361411A4F
:1022C000D161E1E71046491B1269EBE7E362F2E7EF
:1022D0000020DFE71846DDE7440100206001002010
:1022E000F8B5164B5C6905460F4616463CB92046C4
:1022F0006FF00701FEF77EFB4FF0FF30F8BD0028BE
:1023000007DA20466FF00301FEF774FB6FF003005D
:10231000F4E70A4601462046FFF75AFD0028EDD1B2
:102320004EB1656284F8237031463320FFF796FF83
:102330006FF00100E2E76FF00200DFE744010020E8
:1023400038B5154D2B7A022B25D16B6A1BB36C69FE
:10235000E06AFFF7FFF9A06918B100221146FFF704
:102360002DFEEFF309830D48A363FFF777FDFFF719
:10237000EFFD00236B61E278D20704D42046BDE86C
:102380003840FFF7CFBC04226270E3606B6BA36040
:1023900003B1DC606C6338BD4401002060010020A3
:1023A00038B5044610B10378F12B07D020466FF002
:1023B000030100F0C3FA6FF0030038BD437803F067
:1023C0000F03022B25D0032B32D0012B35D1FFF781
:1023D0004EFDE06AFFF7BEF9A06918B10022114670
:1023E000FFF7ECFD6378022B2AD1EFF309831C4839
:1023F000A363FFF733FDFFF7ABFD1A4B00225A61D1
:10240000E07810F001051FD12046FFF78BFC00207B
:10241000D3E7144B1A7A022A02D15B6A002BD8D177
:102420006FF00201204600F089FA6FF00200C4E765
:10243000FFF71DFDFFF7AEFCCBE76FF00201F2E7FF
:102440000020FFF78FFDDBE70423064A63700023BB
:10245000E360536BA36003B1DC605463D7E700BF54
:10246000600100204401002038B50B4C0B48A26DE0
:102470000B4D0021FFF704FE636EA8624BB1E26DC5
:1024800008480021FFF7FCFDA864003818BF0120B0
:1024900038BD0120FCE700BFFC440108AD2800085E
:1024A000440100208526000810B50446EFF305839B
:1024B00033B100206FF0050100F040FA002010BD9C
:1024C000FFF7F8FB0028F4D1DFF808C0204600DF52
:1024D000F5E700BF8120000808B5EFF3058313B1CD
:1024E000054B586908BDFFF7E5FB0028F8D1DFF878
:1024F0000CC000DFF6E700BF44010020091D000802
:1025000010B5044600F048FAEFF305833BB12046CE
:102510006FF0050100F012FA6FF0050010BDFFF733
:10252000C9FB0028F3D1DFF808C0204600DFF5E73B
:10253000A123000838B502460D46EFF305834BB1E1
:1025400092B96FF003011046FEF754FA6FF00304DE
:10255000204638BDFFF7AEFB0028F1D1DFF844C0BC
:10256000104600DF0446F3E71378F12BE9D1002D84
:10257000E7DB5378042B07D16FF002011046FEF71A
:1025800039FA6FF00204E3E702F1280353E8001F71
:1025900041EA050443E8004000B1F7E71046FFF7C1
:1025A00057FBD5E70720000808B5EFF305830BB10B
:1025B000002008BDFFF77EFB0028F9D1DFF804C03A
:1025C00000DFF6E7151D000810B50446EFF305839C
:1025D0003BB100206FF00501FEF70CFA6FF005002B
:1025E00010BDFFF767FB0028F3D1DFF808C02046D5
:1025F00000DFF5E7E122000830B50C4D6B6C0022DE
:1026000013B11C698C420AD9C0E9022301611BB1D4
:102610001C699860611A19612AB1D06030BD1A46F0
:10262000091BDB68ECE76864F8E700BF44010020A1
:1026300070B5134D6C6C04B32369013B2361012613
:102640002369D3B9E3680BB1A2689A606B64002375
:10265000E86C1A4604F11801FEF7A8FE18B12146ED
:10266000032000F027F9E378012B07D161692046A8
:10267000FFF7C2FF6C6C002CE2D170BD6670F9E709
:10268000440100200B4B0C4C07B51A6E586E082104
:10269000FEF774FE094BE0642365E06C4FF0FF33F6
:1026A00000226946FEF7C2FE0028F6D1DDE90030BF
:1026B0009847F2E7FC440108440100203126000855
:1026C00008B5094B094A1A60094B9B1A094A13605D
:1026D000094B0A4A1A600A4B9B1A0A4A136000F017
:1026E00051F800F083F800BF5C22002000FC0220BB
:1026F000000003205822002084370020383C0020AE
:1027000000FC0220803700200E4838B50E4B0360D5
:102710000B250E4B45601C24C4608360FFF75EF8F8
:102720000B4B18600B480C4BC460C0E900350B4BD9
:102730008360FFF753F80A4B1860BDE838400FF08C
:102740008BBD00BF28220020C84501083C22002084
:1027500038220020F8210020D54501080C22002055
:1027600008220020FDF74EBD024B4FF0FF311868E4
:10277000FFF74CB838220020014B1868FFF75EB80D
:102780003822002008B501F0B5F80C4B0C499868C8
:102790004FF00053C21802F16042126843F8042B54
:1027A0008B42F7D1054B4FF000529A6003F090FC3A
:1027B00004F0FCF9BDE8084000F015B800ED00E0B9
:1027C0003C0100207047704708B500F043F8FFF760
:1027D000F9FFFFF799FFFFF7F6FF02F045F8BDE8B4
:1027E0000840FFF7BFBFFEF77DBA0000114C124B47
:1027F00023614FF4805363614423E3600F4BA36074
:10280000182307B5A3610E480E4B23602246002112
:10281000FFF74AFE034628B90B49009022460B48B1
:1028200002F02AF8FEF776FA0023094900931A46C7
:10283000F5E700BF603200206022002084320020D3
:10284000C9270008EF450108F44501081D01018072
:10285000104601081FB5064B0FCB6C4684E80F00ED
:102860002046FEF7BBFF034B186004B010BD00BF4D
:1028700028460108C832002073B506460C461546A6
:1028800001F0F4FF58B906342ABF064B064953F845
:102890002410002300933246284601F0EDFF02B0D9
:1028A00070BD00BFEC4701084047010808B500F0C3
:1028B000F5F8000007B50023421E00930023042A08
:1028C00019D8DFE802F003080C1014000C490D4879
:1028D000012201F0D1FF0C490C480222F9E70C4912
:1028E0000C480322F5E70C490C480422F1E70C4997
:1028F0000C480522EDE702460B490C48E9E700BF0A
:102900003846010825010280594601082601028047
:102910007E46010827010280B34601082801028093
:10292000EE4601082A0102802E47010800010280BC
:10293000014A0146FFF7A0BF31010180014AFFF7BC
:102940009BBF00BF32010180014AFFF795BF00BF66
:1029500037010180014AFFF78FBF00BF33010180BB
:1029600011F1110F02D0024AFFF786BF704700BF76
:1029700034010180014AFFF77FBF00BF38010180A9
:1029800010B5FFF7A9FD034B1B6813B1BDE810405C
:10299000184710BDE8320020024B1B6803B11847EE
:1029A000704700BFE8320020024B987A003818BF09
:1029B000012070474401002008B5FEF7C1F907491E
:1029C000002201F0EBFFC31C04D9054905488B2206
:1029D00001F0F2FCBDE80840FEF7C6B9A9290008DD
:1029E0000448010843480108B0F57A7F10B50C4649
:1029F00004D019491948322201F0DEFC01F074FBC1
:102A00000028174A14DB00F1604303F56143F0210D
:102A100083F80013916800F1100341F82340926895
:102A200052F823309C420AD00B490E483F22E3E77C
:102A300000F00F03043B1344F0211976EAE7002865
:102A400008DB0123420900F01F0003FA00F0064BE7
:102A500043F82200002010BD044801087048010816
:102A600000ED00E07D48010800E100E008B501F05C
:102A70001DFFBDE8084001F058BC0000014B18687C
:102A800001F088BCF0360020014B186801F044BC0E
:102A9000F036002008B501F027FB08BD08B5024C50
:102AA00023689847FCE700BFE8010020F8B5054619
:102AB000064655F8044B8CB90D4F386818B14FF0E5
:102AC000FF31FEF7A3FE346824B9284602F042FB2A
:102AD0002C463560386808B1FEF7B0FEAC4204D031
:102AE000044905488B2201F067FC2046F8BD00BF71
:102AF000C8320020AA480108E748010803680122FB
:102B00001B6900211847036800221B6911461847FA
:102B10006FF0150070470000C36810B52BB9044969
:102B200004484FF4FD7201F047FCBDE8104018471F
:102B30000A4901084349010807B5019001F00EFD5B
:102B40000198012102F0D2FE03B05DF804EB01F020
:102B50001BBD07B5019001F001FD0198002102F0B5
:102B6000C5FE03B05DF804EB01F00EBD10B5044BDB
:102B7000044640F8203B03F075F8204610BD00BF26
:102B80005849010810B50446FFF7F0FF20465021D0
:102B900002F04CFA204610BD0346024A203002F0F3
:102BA00089BF00BF272C000870B505460E4B45F8BD
:102BB000043B04460E461C220021284610F00EF865
:102BC0001022002104F1200010F008F80023E36334
:102BD000E36431462046FFF7DFFF2846314600F028
:102BE000E6FB204670BD00BF5849010884B070B5AF
:102BF00005AD85E80E00044601F0B0FC089A04F12A
:102C0000200672B195E80F00303484E80F000122ED
:102C10003046012102F0DCFEBDE8704004B001F056
:102C2000B3BCE263F4E7012908B502D0022907D05A
:102C300008BDC36B002BFBD03030FFF76DFFF7E70B
:102C4000C36C002BF4D04030F7E7416830B4034642
:102C500071B1D0E9032000F0010402B944B145107C
:102C600001EB60000CB149598A58996830BC104793
:102C700030BC704713B5B0F9383044680093B0F9F0
:102C80003630B0F93420B0F93210201D03F070FD59
:102C900002B010BD034B186818B14FF0FF31FEF7BA
:102CA000B5BD7047C832002070B5054601F056FC2E
:102CB0000A4B0B4C1A684FF49A7100239A420BDDB1
:102CC00001FB03F00659AE4204D1044401F05CFC60
:102CD000204670BD0133F1E70024F7E754350020AA
:102CE000EC320020084A08B51368012B04DD0749BF
:102CF0000748AF2201F060FB591C1160054A4FF4F0
:102D00009A7000FB032008BD54350020604901087B
:102D10008B490108EC3200204368D3F8C830834265
:102D200010B5044610D0036F98476068D4E91612B6
:102D30000023043003F0F4FD6068216E043003F0DA
:102D400037FE6368C3F8C84010BD036870B5044619
:102D50001B690D46164698476068D0F8C830A342F4
:102D6000C4E916560BD1002332462946043003F03D
:102D7000D7FD236820465B69BDE8704018472046B0
:102D8000FFF7CAFFF5E7036870B504461B690D46F7
:102D9000984760682566D0F8C830A34209D1294613
:102DA000043003F005FE236820465B69BDE87040EF
:102DB00018472046FFF7B0FFF5E7B0F94C30013374
:102DC00003D0C36B11B1426C13607047826CFBE798
:102DD00038B5036804461B69984794F965506B1C25
:102DE00084F8653045B92046FFF796FF294620460E
:102DF000BDE83840FFF7E1BF38BD10B590F8653049
:102E0000013B5BB2044680F8653013B90121FFF73E
:102E1000D4FF236820465B69BDE81040184737B5EA
:102E200004460191FFF7D4FF60680199043003F074
:102E3000DFFD05462046FFF7E0FF284603B030BD22
:102E400030B5044687B0CDE904210393FFF7C0FFF6
:102E500094F86450606801950A9D05990095DDE934
:102E60000332043003F0FEFD05462046FFF7C5FFA0
:102E7000284607B030BD000070B50646054656F836
:102E8000044BF4B9FFF706FF2C68ACB921466C601F
:102E9000282205F108000FF0A1FEAC622C63282265
:102EA000214605F134000FF099FE6C65C5E9174421
:102EB00085F864402E603446064B186808B1FEF76A
:102EC000BDFCB44204D0044904488B2201F074FADA
:102ED000204670BDC8320020AA480108E748010812
:102EE0000023082210B5C0E9162303860C4B0366A5
:102EF0000446FF23A0F8643001F030FBE06EFFF7DA
:102F0000D3FE606020B9FFF7EDFEE36E6060036002
:102F100001F03AFB6068CC30FFF7AEFF10BD00BF98
:102F200040420F0038B504461648E386BDF910301C
:102F30002060002523871448A06004F13C036186CB
:102F4000A28629461C221846C4E90455E460A561FE
:102F5000E561E5620FF042FE4FF0FF3100F02EFA1E
:102F60000A4BB4F93620B4F934102367B4F93200AF
:102F7000A56603F0CFFBE0662046FFF7B1FF2046D1
:102F800038BD00BFBC4901084B2C0008752C000857
:102F900008B54068A030FFF789FDBDE8084002F0A1
:102FA000E1B808B54068A030FFF780FDBDE80840F3
:102FB00002F0F6B810B50B4B03600446FFF7E8FFCC
:102FC0006368D3F8C820A24208BF0022204608BF89
:102FD000C3F8C820FFF7E5FFE06908B101F036F853
:102FE000204610BDBC49010810B50446FFF7E2FFBA
:102FF0002046742102F01AF8204610BD70B5D0E9C1
:103000000213D0E908250446521845EB030300F0EB
:1030100049F9636B23B104F12800BDE870401847FB
:1030200070BD000038B50446154600F025F9064B82
:10303000236000220023C4E908230023636384F88B
:103040003850204638BD00BFDC49010813B504469E
:1030500001A801F003F8204600F02EF9636B23B1BC
:1030600094F838300BB101F0D3FC0023636301A85E
:1030700000F0FCFF02B010BD70B5054614461E46B8
:1030800000F01AF9C5E90846A86900F005FC221805
:1030900046EB01032846BDE8704000F003B984B058
:1030A00073B5054607AC01A884E80E0000F0D6FF12
:1030B0006B6B23B995F838300BB101F093FC94E8B1
:1030C0000F0005F1280686E80F00DDE90C232846ED
:1030D000FFF7D2FF01A800F0C9FF02B0BDE87040C1
:1030E00004B0704730B5436B85B00446B3B100F10E
:1030F00028030FCB6D4685E80F000023636394F827
:1031000038300BB101F084FC039B2BB9044905480E
:103110004FF4FD7201F050F92846984705B030BDD4
:103120000A4901084349010810B5044600F062F954
:10313000002201462046FFF775FF024B2360204620
:1031400010BD00BFE8490108437D10B504461BB11E
:10315000037D0BB101F05CFC204610BD13B50446A5
:1031600001A800F07BFF637D53B9237D0BB101F013
:1031700039FC206900F090FBC4E90001012363756C
:1031800001A800F073FF02B010BD37B504460D462C
:1031900001A800F063FF00230022C4E900236B7D37
:1031A0004BB1286900F078FBD5E90032C01A61EB19
:1031B0000201C4E9000101A800F058FF204603B055
:1031C00030BD30B585B004460D4603A800F046FF7B
:1031D00029466846FFF7D9FFD5E90210009B019AFE
:1031E0005B1842EB0002C4E9003203A800F03EFF86
:1031F000204605B030BD07B501466846FFF7E1FF40
:10320000DDE900014FF47A72002310F0E5FD03B010
:103210005DF804FB13B5044601A800F01FFF206908
:1032200000F03AFB00220023C4E90001C4E90223B4
:1032300001A800F01BFF02B010BDD0B5002300268E
:103240000027C0E90067C0E9026704460161027512
:103250004375FFF7DFFF2046D0BD10B5044600F0F0
:1032600035FB012201462046FFF7E7FF204610BD4F
:1032700003681B681847000010B50446074B23601D
:1032800000220023C4E9022300230846A161C4E907
:103290000433034900F08FFA204610BDF4490108B9
:1032A0007132000807B5009000F10801806900F054
:1032B000C0FA03B05DF804FB00F10801806900F07A
:1032C000D0BA000010B5034B03600446FFF7F4FFCB
:1032D000204610BDF44901080020704700290CBFAA
:1032E0006FF01800002070470120704784B001A8DB
:1032F00080E80E0004B07047EFF3108372B6054A01
:10330000117831B90449DB4303F001030B70012349
:1033100013707047593500205835002008B5EFF379
:103320001083DB4313F0010304D00649064836221C
:1033300001F042F8054A1370054B1B7803B162B6E1
:1033400008BD00BFF8490108334A0108593500207B
:103350005835002070B50E460446154602F0A0FA16
:10336000013609D02046002102F0C0FA2946204645
:10337000BDE8704002F0B6BA70BDF8B50F4604461D
:1033800015461E4602F08CFA01370FD023685EB155
:10339000A26813602046012102F0A8FA29462046BF
:1033A000BDE8F84002F09EBAE268F2E7F8BD0022FC
:1033B000FFF7D0BF13460022FFF7DFBF0022FFF761
:1033C000F9BF2DE9F0411746069E04460D461A4600
:1033D0005FB9FFF7BFFF013503D023681EB1A268B4
:1033E0001360BDE8F081E268FAE73346BDE8F041DA
:1033F000FFF7C3BF00487047504A0108024B1B68E3
:103400000BB1024818477047EC010020504A0108F0
:10341000884207B502460AD0431C08D0013105D0C6
:10342000002305490548009301F026FA01460846A5
:1034300003B05DF804FB00BF7C4A01083001018045
:10344000B1F900305A1C01D118467047834201D1AE
:10345000486870470C31F3E7421C13B504460AD0A4
:10346000FFF7EEFF431C06D10023044904480093F4
:10347000224601F001FA02B010BD00BF8D4A0108DA
:1034800030010180B1F900305A1C01D11846704753
:10349000834201D1886870470C31F3E7F8B544687E
:1034A00094F832608EBB03685B689847216A81425A
:1034B0002BD0236994F934202062411A1940A36863
:1034C000A1FB03C1CAB1656A15EB0C0541F100010E
:1034D000002A1BDBC2F12000A2F1200325FA02FC26
:1034E00001FA00F021FA03F34CEA000C4CEA030C59
:1034F000D1400CFA02F2AA1A6262D4E90A3213EB42
:103500000C0341EB0201C4E90A31F8BDE768334618
:103510003A46284610F0B0FC844607FB1050606223
:10352000EBE7824206D98A420BD9884294BF002039
:1035300001207047884206D98A428CBF00200120B2
:103540007047012070470020704700002DE9F743C5
:1035500047683B6B23F07F4929F0FF090646B9F124
:10356000000F5FD1FFF79AFF7B68002B5DD0D3E996
:103570000041D7E90A23A2428B4105D333685B6936
:1035800003B0BDE8F04318477568D5E90A03D5E9EB
:103590000582241A61EB030CEB69A24273EB0C0366
:1035A0001ED3EB68A3FB044103FB0C1195F93330E8
:1035B0009BB1AA68501E001941F10001002B1DDBD0
:1035C000C3F1200CA3F1200220FA03F401FA0CFC51
:1035D00044EA0C0421FA02F21443A04528BFA04695
:1035E0002A6A3B6A90442A6908EA020293420AD195
:1035F0001349144840F2C91200F0DEFE4B4610F0A9
:103600003BFC0446E9E73368019210461B69984782
:1036100033685B689847019A0146386AFFF781FF73
:103620000028ABD103B0BDE8F0837B69386A3A6902
:10363000184433681B69104003B0BDE8F0431847D5
:10364000AD4A0108DE4A01084368F7B593F8302017
:103650000546002A40F0828093F83230002B7DD15D
:1036600003681B6898472B68DB69984703682BB988
:103670003B493C4800931A4601F0FEF83A4C194683
:103680002246B1FBF4F402FB14141146002CF7D1CE
:103690006E68354CB4FBF2FC0121C6F808C01F244B
:1036A000013C02D14FF0FF3403E001FA04F7BC45BE
:1036B000F6D1B3FBF2F286F83340F2601F2301210A
:1036C00001FA03F4A24203D0013BF9D14FF0FF33DA
:1036D00086F834304468201F1C2805D9002323496C
:1036E000234800931A46C7E7202C1CBF0123A340A0
:1036F0004FF0070101FA00F114BF03F1FF334FF05F
:10370000FF330027501E336171614FEAE173A1FB63
:103710000C410CFB031C47F1FF3120184CEB01015D
:103720003B4610F0A9FB2B68C6E90601C6E9007705
:103730005B6898476B683062002101220020C3E972
:103740000A015F6228461A8683F83270FFF7A6FEE8
:10375000284603B0BDE8F040FFF7F8BE03B0F0BD67
:10376000024B01080E01048040420F001B4B010870
:1037700005010480F0B44568049C8C60C1E9002315
:103780006C6800262CB9CC6066B96960F0BCFFF7A4
:10379000DDBE2768BA42676873EB0707F3D3264696
:1037A000E468EFE7F160D5E90A41944271EB030365
:1037B000ECD2F0BC704738B505460C46FFF744FF25
:1037C00000F0CCFE6B681C60BDE8384000F0DCBE49
:1037D00070B5054600F0C2FED5E90034DB689847B5
:1037E00094F832301BB1BDE8704000F0CDBE01232B
:1037F00084F831306368ABB12846FFF74FFE636849
:10380000D4E90A61D3E90002864271EB020209D3CE
:103810006A68DB68526863602368002BEAD09068AE
:103820009847E7E7002384F831302846FFF78EFEFB
:10383000D9E710B586B0CDE904210393089C029026
:1038400000F08CFE0298FFF729FEDDE903320599AE
:1038500002980094FFF78EFF06B0BDE8104000F01C
:1038600093BE38B505460C4600F078FE6A6853688A
:10387000A34209D1DB6853602846FFF767FEBDE825
:10388000384000F081BE1346002BF8D0DA68A2421F
:10389000F9D1E268DA60F2E713B50446FFF7D4FE27
:1038A00000F05CFE2046FFF7F9FD6368D3E90A01EA
:1038B000CDE9000100F068FEDDE9000102B010BDB5
:1038C00008B5FFF7E9FF08BD7047000000487047E2
:1038D000584B0108024B1B680BB102481847704750
:1038E000F0010020584B0108B1F90C20B1F9041087
:1038F00002F0E2BD08B5BFF35F8F1D4BD3F8901007
:10390000080A10F0FC0FC1F3072104D119491A4825
:103910003B2200F051FD0022C3F8942010468A4259
:103920001FD11022C3F89C20144AC3F8A0201322F0
:10393000C3F89C20124AC3F8A0201122C3F89C208F
:10394000104AC3F8A020104AC3F89C200F4AC3F8BD
:10395000A0200722C3F89420BFF34F8FBFF36F8FCF
:1039600008BDC3F89820C3F8A0000132D7E700BF14
:1039700000ED00E0844B0108B64B010839F0020667
:10398000390702133FF50B131200008039000213B0
:10399000102300F007B8202300F004B8302300F013
:1039A00001B840239C46F0B404AE7546E80801D344
:1039B000EFF309860E4F0FCE0FC70FBC0FC740465F
:1039C000494652465B460FC71DCE3100A60A00D3BA
:1039D00004316E0900D248311FC7EFF309806946F0
:1039E000EFF3148663C76046014900F079F800BF21
:1039F000D0350020F0B52C4E2C4F85B00024354634
:103A0000214656F8042B3846013400F08DFD0D2C6C
:103A1000F6D1AB6C02936B6C01932B6C244C00932E
:103A2000D5E90E23696B234800F07EFD216822480A
:103A300000F07AFDE16AA26AA36AA06A266BE76BCE
:103A4000000CCDE901670090C3F307231B48D2B2F5
:103A500000F06AFDA36A1E0603D5616B184800F0EA
:103A600063FDA36A180403D5A16B164800F05CFD42
:103A7000EB6C190712D5144800F056FD2B6DDA07D0
:103A80000FD5124800F050FDEB6C5B074CBF10489F
:103A9000104805B0BDE8F04000F046BD0E4800F00B
:103AA00043FD0E48EEE700BFD0350020C34B0108B0
:103AB00000ED00E0D14B0108204C01082E4C01081C
:103AC0007D4C01088B4C0108994C0108A84C010859
:103AD000D84C0108E44C0108C84C0108B54C010859
:103AE00007B504460D461A48012100F094FC68BB56
:103AF000184800F019FD302C19D0402C1CD0202C77
:103B00001FD11548154C00F00FFD154800F00CFDB5
:103B1000FFF770FF134800F007FD0D4B00221A70ED
:103B20000023114900932A46204600F0A5FE0F48C5
:103B30000F4C00F0F9FCE8E70E480F4C00F0F4FCE5
:103B4000E3E70E480E4C00F0EFFCDEE70024E7E769
:103B5000A0360020F04C0108194D01083E01FF80FD
:103B6000464D0108514D0108704D0108284D0108CE
:103B70003F01FF80314D01084001FF803C4D0108AD
:103B80003D01FF8070B5144612686FF00046B242E6
:103B90000546049807D238B1014618460DF0D2FF09
:103BA000431C05D1206070BD15B18A4238BFAB54AB
:103BB000236801332360F6E72DE9F04F2DED028BEA
:103BC0008DB007469DF870309DF868B00493884624
:103BD00091460021142207A8DDE9184506910EF050
:103BE000FDFF049B002B14BF30232023BBF1010FEA
:103BF00008EE103A43D1002D41DA644265EB4505E9
:103C0000CDF808B000230393ABF10203DBB20DF152
:103C1000180A0593059B012B5AD8BBF1020F04F03B
:103C20000F030CBF384A394A2409D35C8AF80030A4
:103C300044EA05742D09039B5E1C54EA05030AF14E
:103C4000010A43D1029B23B3049B3BB11D9B00930C
:103C50004A462D2341463846FFF794FF039E1B9B9F
:103C600002369E421ADB049B3BB91D9B00934A46D9
:103C70002D2341463846FFF785FF013E1FE054EAF9
:103C8000050302D000230293BCE730238DF81830DF
:103C900001261B9B9E4212DA002302931D9B009378
:103CA0004A4618EE103A41463846FFF76BFF1B9B19
:103CB000013BB3421B93F1DC029B002BD3D106AC3A
:103CC000C6B90DB0BDEC028BBDE8F08F0396A1E73D
:103CD000204629460A22002310F0CEF830328AF816
:103CE0000020204629460A22002310F0C5F8044689
:103CF0000D46A0E71D9B0093013E4A46A35D414649
:103D00003846FFF73FFFDBE7804D0108904D010883
:103D10002DE9F04F8BB01C460023149E09938B466F
:103D20001546BAB1994215DB1ABF01F1FF3B98461F
:103D30004FF001084FF0000A15F80A3073B948B186
:103D4000B8F1000F06D1099B5B4594BF00F80380D2
:103D500000F80B8009980BB0BDE8F08F252B40F0E0
:103D600032810AF1010915F80930203BDBB20D2B35
:103D700007D842F6090222FA03F3DB0748BF0AF12B
:103D8000020915F809302A2B24D1002209F1010774
:103D90000434114615F807C0BCF12E0F05EB0703DC
:103DA0005ED193F801C0BCF12A0F2ED0C5F10107F6
:103DB0004FF0000C0797079F1F4413F801EFAEF177
:103DC000300E5FFA8EF9B9F1090F21D80A2707FBE7
:103DD0000CECF0E7302B16D109F1010915F8093088
:103DE000302BF9D00121A9440022A9EB050719F8CD
:103DF000013B303B5FFA83FCBCF1090FCAD80A27AC
:103E000007FB0232F1E70021EDE754F804CB02375B
:103E1000EB5D682B27D1EB195B78682B0CBF722305
:103E2000112303F00309B94415F80970642F01D078
:103E3000692F42D1822B30D1073424F007073C464A
:103E40007F6854F8083B0392CDE90416CDE90037AA
:103E50000122029209AA59460790FFF7ADFE6EE0D3
:103E60006FF0004CD4E76C2B06D1EB195B786C2B10
:103E70000CBF82232123D4E76A2B08D07A2B08D0E9
:103E8000742B08D04C2B14BF00236123C9E73123C6
:103E9000C7E74123C5E75123C3E7112B54F8047B3F
:103EA00007D0722B15BF3B467BB2DF1747F3C01715
:103EB000C9E73BB247F3C037C5E7752F04D007F019
:103EC000DF0EBEF1580F2FD1822B11D1073424F011
:103ED000070C6446DCF804C054F8083B0392752FC5
:103EE000CDE904161AD10022CDE9003C0292B1E7D7
:103EF000512B54F804CB0DD0722B05D0112B06D0CA
:103F000063464FF0000CE9E75FFA8CF3F9E71FFA1C
:103F10008CF3F6E763464FEAEC7CDFE7582F01D1DC
:103F20000322E1E70222DFE7632F0AD154F8043BC2
:103F30000096DBB209AA59460790FFF723FE0798BF
:103F40000AE0732F15D154F804AB0AEB0C079AF86A
:103F500000300BB1BA4502D109F1010AECE6009636
:103F600009AA594607900AF1010AFFF70BFE0798C4
:103F7000EDE7702F1CD154F8047B0096302309AA7A
:103F800059460790FFF7FEFD07980096782309AA87
:103F90005946FFF7F7FD0023CDE9033303230293CE
:103FA000FB17CDE900730798059609AA594654E70F
:103FB0000096252309AA59460790252F18BFD146F8
:103FC000FFF7E0FDBBE7009609AA59460790D146E6
:103FD000FFF7D8FDB3E700000FB41FB50849096823
:103FE00006AB896853F8042B009100206FF0004164
:103FF0000393FFF78DFE05B05DF804EB04B0704746
:10400000040300200EB40FB505AB002153F8042BB8
:1040100000916FF000410393FFF77AFE04B05DF862
:1040200004EB03B0704713B500240094FFF770FE53
:1040300002B010BD07B5134600900A4600206FF08D
:104040000041FFF765FE03B05DF804FB024B1B68FF
:1040500003B11847704700BF2436002007B5019010
:1040600000F07CFA019803B05DF804FB07B50190FD
:1040700000F08AFA019803B05DF804FB6FF01500B8
:1040800070476FF01500704708B5024902488E224C
:1040900000F092F9A04D0108D14D010810B5044679
:1040A0000846FFF7F9FBC4E90001204610BD0000F7
:1040B00010B50446FFF7E0F820460A4B40F8203BD5
:1040C000A169FFF7EBFFD4E90823C4E90A23002222
:1040D0000023C4E90C230023C4E90E3384F84030E4
:1040E000204610BD004E01084FF0FF30704738B534
:1040F00090F83F5004460DB1FFF7C6FFFFF7DCF81C
:1041000094F84030A5872BB184F84050BDE8384082
:1041100000F07EBC38BD10B5044601F1300000F05F
:1041200083F9C4E90001204610BD10B58969044631
:10413000FFF7B4FF204610BDD0E90C32013342F145
:104140000002C0E90C32D0E90A3213F57A7342F169
:104150000002C0E90A327047D0E90A2312F57A72E8
:1041600043F10003FFF79EB837B50D460446896951
:104170006846FFF793FFD5E90A3200980199C01A03
:1041800061EB0201B0F57A7F71F1000306D20022E3
:104190000023C4E90023204603B030BDB0F5FA6F18
:1041A00071F1000301D20122F2E700294FF47A7283
:1041B0004FF00003D8BF00210FF05EFEC4E90001FC
:1041C000E9E7000091F83F30F7B505460C4613B912
:1041D00091F83C7027B112491248E52200F0ECF842
:1041E0006846FFF7C1FFDDE900364FF47A70A76338
:1041F000A3FB007200FB0622D4E90A10C91942EBA6
:104200000002C4E90A12D4E90C125B1842EB060260
:104210002846C4E90C32C5E9003203B0F0BD00BF46
:10422000A04D0108DB4D01082DE9F7431F4690F82A
:104230003F300446164623B131493248582200F037
:10424000BBF890F83C305BB901466846FFF7BAFF0F
:10425000009BB342019BBB4105D3012384F83D3051
:1042600003B0BDE8F08321466846FFF754FF009B8A
:10427000B6EB0308019B67EB03094FF47A73A6FBC7
:10428000036503FB0757D4E90823B61894F84020C8
:1042900047EB03070123A3876AB9A269126892F862
:1042A00020203ABB84F8403000F09CFBB8F1050FA9
:1042B00079F100030DD2002384F83E3094F84030A9
:1042C00023B9012384F8403000F08CFB32463B4692
:1042D0000AE094F84030002BEDD10123B6F57A6264
:1042E00084F83E3067F10003204603B0BDE8F04398
:1042F000FEF7D8BFB8F1050F79F10003DBD3ECE787
:10430000A04D0108D14D0108024B4FF080625A6068
:10431000704700BF00ED00E008B50121383000F023
:1043200071F808B1FFF7F0FF08BD012310B580F860
:104330003F30836B04460BB1FFF7E6FF2046FFF7E3
:104340000BFF10BD90F83C3010B504464BB1002374
:1043500080F83C3090F83E3013B9012380F83D30AE
:1043600010BD90F83F30002BFAD0836B013383638C
:10437000FFF7CAFF2046FFF7DFFE2046FFF7ECFEFF
:10438000EEE70000024B4FF000725A60704700BF2A
:1043900000ED00E010B50446FEF78EFF002384F820
:1043A0003F30FFF7EFFF10BD0EF002B80EF01EBD5C
:1043B0000DF09ABC0DF092B907B50B46009201467C
:1043C0000022014800F058FA4401FF800346012210
:1043D000D3E84F0FC3E8412FC0B20029F8D170478E
:1043E000D0E85F3F5B18C0E8523F002AF8D198B28E
:1043F0007047D0E85F3F5B1AC0E8523F002AF8D10F
:1044000098B27047034653E8000F401A43E8000291
:10441000002AF8D170470346D3E84F0FC3E8421F84
:10442000C0B2002AF8D1704713B5044600F096F8E0
:10443000D4E90001CDE9000100F0A6F8DDE90001B2
:1044400002B010BD00B589B000F088F8442101A881
:10445000FEF7B4FF104E114D0424039B019A1A601D
:10446000304600F0E7FD049B019A1A60304600F0E8
:10447000E1FD013CF1D10424039B019A1A60284616
:1044800000F0D8FD049B019A1A60284600F0D2FD86
:10449000013CF1D1E0E700BFF0490200801A0600BC
:1044A00073B5002201460446022000F01FFC0D26D1
:1044B00000F054F80022254614F8013B23B902B05D
:1044C000BDE8704000F060B80A2B09D10D2A07D072
:1044D00001220DF1070102208DF8076000F006FCB3
:1044E00001222946022000F001FC14F8012CE2E729
:1044F00000B5A3B002460B4601A88421FFF793FD47
:10450000832806D9074B1A681B79CDF883208DF8CC
:104510008730002802DD01A8FFF7C2FF23B05DF855
:1045200004FB00BF044E01080FB407B504A951F8FD
:10453000040B0191FFF7DCFF03B05DF804EB04B05E
:104540007047EFF31080C04300F001007047EFF3B5
:104550000580003818BF01207047000008B5FEF73D
:10456000CBFE064A1368591C04D1054905483F2271
:10457000FFF722FF0133136008BD00BF283600207B
:10458000094E01083D4E0108044A136823B1013B5E
:1045900013600BB9FEF7C2BE704700BF283600207B
:1045A00008B50B48FFF712FF28B1FFF7D7FFBFF39D
:1045B0004F8F20BFFDE7FFF7CAFF08B1FFF742FFAB
:1045C000FFF7BFFF0028F9D0012000F0E3FC00BF97
:1045D000683600202DE9BF43464C0F462168C1F3E1
:1045E0004173032B0CBF4D428DB2C1F3074381468B
:1045F000904641482A46FFF797FF6FF498731D4491
:10460000132D0FD8DFE805F00A585B5E6167646A16
:104610000E0E0E0E0E0E0E0E0E0E0E6DA16837480B
:10462000FFF782FF4846FFF73BFF61683448FFF71A
:104630007BFF4FB13348FFF733FF3846FFF730FFBA
:1046400031484146FFF770FFA1683048FFF76CFF23
:1046500023682F4A1A44012A05D92E4A934202D0D0
:10466000033A934241D1A06820B1C06C80F00800A9
:10467000C0F3C000E368002B39D05968264A0029EE
:1046800008BF1146E2690392A2690292626901922F
:1046900022690092214D224A002818BF2A4621484B
:1046A000FFF742FF21682048FFF73EFF1F4804B094
:1046B000BDE8B043FFF738BFA1681D48B0E7A16867
:1046C0001C48ADE7A1681C48AAE7A1681B48A7E7FA
:1046D000A1681B48A4E7A1681A48A1E7A1681A4885
:1046E0009EE71A48FFF720FF9CE70020C2E70A492F
:1046F000C8E700BF6C360020834E0108D44E010885
:104700007C4F01088D4F0108954F0108994F010812
:10471000C2FE007F4001FF806E4E0108784E010806
:104720006F4D0108AD4F01080650010853500108B4
:10473000EA4E0108FA4E0108094F01081C4F010812
:10474000304F0108444F0108534F0108694F0108D9
:1047500070470000F0B5294D8FB035EA200528BF1D
:1047600005460E4617460021302202A80EF036FA02
:10477000234B01952B44012B01AC039605D9214B0A
:104780009D4202D0033B9D4232D1F36B0293736B87
:1047900008931D4B5B690493DA6B05925A6B1B6B94
:1047A00006920793FFF7DAFE184A13680133012BCC
:1047B000136009D126460FCE154D0FC50FCE0FC57C
:1047C0000FCE0FC533682B600FCC124D0FC50FCC29
:1047D0000FC50FCC0FC523682B600F4B1B68A5F1CD
:1047E000300043B19847FFF7CFFE00200FB0F0BD77
:1047F00002970894CDE7FFF7ABFFF4E70101FF80D4
:10480000C2FE007F4001FF80440100202C360020C2
:10481000343600206C360020303600200FB41FB52F
:104820000D48CDF804E00121FFF7F5FD019A04469B
:1048300080B901460948FFF78DFF09482246214605
:10484000FFF7C8FE069807A90391FFF751FE054838
:10485000FFF726FEFFF7A4FEA03600200001FF8030
:104860006D5001086E4D010800207047014B18780B
:10487000C0B27047A036002080B506460C460A48F4
:104880000121F04617461D46FFF7C5FD48B94246CF
:1048900039463046FFF75EFF029A29462046FFF769
:1048A00099FEFFF77DFE00BFA036002038B5064C0C
:1048B00023683BB9FEF79EFD044D01462846FFF7ED
:1048C000F7FB2560206838BDF0360020A8360020B0
:1048D00008B5836823B9054B1B6893F83D0008BDF4
:1048E000C06898470028F6D0F9E700BFF0360020EE
:1048F000F7B5194F04464FF0FF356FF000462046DC
:10490000FFF7E6FF30BBD4E90023B34208BFAA4259
:1049100002D03868FFF788FC01A8FFF79FFB20460C
:10492000FFF7D6FF98B9D4E90023B34208BFAA42E3
:1049300007D100F091F801A8FFF798FBBFF36F8F44
:10494000DDE73B6893F83C30002BF2D1F3E701A898
:10495000FFF78CFB03B0F0BDF036002030B587B018
:10496000CDE902230A9B0C4D04930B9B059304464F
:10497000FFF79CFF02A8FFF7BBFF2868FFF7B7FB14
:1049800068462968FFF71EFCDDE900232046C4E9DC
:10499000002307B030BD00BFF03600202DE9F04104
:1049A000DFF83C8086B005460E4604A8D8F8001013
:1049B0001746FFF7B0FBD8F80020DDE90443926BFF
:1049C000A41A63EBE2732A1943F1000302A8CDE9AC
:1049D0000067FFF7C3FF0298001B06B0BDE8F08137
:1049E000F036002013B5074C01212046FFF7F8FCF4
:1049F000034628B90090228803490448FFF73CFF8A
:104A000002B010BDF436002082500108230104805A
:104A100013B5094C01212046FFF7EBFC4FF6FF735D
:104A2000984206D100232288044905480093FFF7E5
:104A300023FF02B010BD00BFF4360020A4500108CF
:104A400024010480034B188880B2B0FA80F040093A
:104A5000704700BFF436002008B5FFF77FFDFFF771
:104A6000F1FF28B100F090FEBDE80840FFF78CBDD3
:104A700001F0DCFDF8E76FF01C0070476FF01500E7
:104A8000704701207047002070477047034B18683B
:104A900018B14FF0FF31FCF7B9BE7047C8320020A3
:104AA000024B186808B1FCF7C9BE7047C832002035
:104AB000F8B5074E15460C468F18BC4205D014F8C1
:104AC000011B304600F034FEF7E72846F8BD00BF72
:104AD000143B002038B511F001048DB205D0084810
:104AE00001F022FC041E18BF0124EB0605D5044882
:104AF00001F02AFC08B144F01004204638BD00BF84
:104B0000143B002010B504460DF04AFC204610BDB1
:104B100010B50C462AB1044800F0D6FD20700120E3
:104B200010BD1046FCE700BF143B002038B5084B11
:104B30000360084B1B680446154633B90648FEF768
:104B4000D3FE0548294601F04DFC204638BD00BF84
:104B500008520108603B0020143B002000207047F1
:104B60000020704708B5012000F014FA074A0849F0
:104B700013681844884289BF064B10600C224FF01E
:104B8000FF308CBF1A601846704700BFF402002047
:104B900000FC0220343C00200120704701207047B7
:104BA00008B5FDF7E1FD08BD08B5FDF7E5FD08BD59
:104BB00010B50446037803F00303012B08D0FFF778
:104BC00065FF237803F00302012A03D1FFF768FF92
:104BD00000200AE02AB10549054840F29A62FFF731
:104BE000EBFB43F002032370012010BDC25001080B
:104BF000F850010808B5037803F00302022A05D033
:104C00000749084840F2A362FFF7D6FB23F00303ED
:104C100043F001030370BDE80840FFF741BF00BF48
:104C2000C2500108165101083F2870B504462EDC19
:104C3000184E56F820305A1C13D1022811DCFFF709
:104C40008FFF034658B92046FFF788FF034630B967
:104C5000114D2B78BFF35B8FDB0704D50F4B46F864
:104C60002430184670BD2846FFF7A2FF0028F5D073
:104C70000B490A484FF4E132FFF758FF2846FFF787
:104C8000B9FF084A08490548FFF786FFE6E7002311
:104C9000E7E700BFF4010020F83600207C37002051
:104CA00050520108400100208B4A000838B50546E3
:104CB000FFF7BAFF0B4B002443F8254030B90CF046
:104CC0003DFD092303604FF0FF3038BD03685B6989
:104CD0009847051E04DA0CF031FD6D420560F2E7DD
:104CE0002046F2E7F4010020FFF7E0BF13B5CDE95D
:104CF0000021FFF799FFDDE9002140B90CF01EFD0E
:104D0000092303604FF0FF34204602B010BD036852
:104D1000DB689847041EF7DA0CF010FD644204606B
:104D2000F0E713B5CDE90021FFF77EFFDDE90021B3
:104D300040B90CF003FD092303604FF0FF34204617
:104D400002B010BD03689B689847041EF7DA0CF0A8
:104D5000F5FC64420460F0E710B5FFF765FF044618
:104D600028B90CF0EBFC09230360204610BD036852
:104D7000DB699847041EF8DA0CF0E0FC644204603A
:104D80000024F2E72DE9F74F06460F469046FFF75D
:104D9000DEFB054630B100232D492E4800933246F4
:104DA000FFF76AFDFFF7CDFB0028F4D0B8F1000F44
:104DB00009DA0CF0C3FC162303604FF0FF342046E1
:104DC00003B0BDE8F08F3046FFF7C6FF044660B37E
:104DD000DFF884B0DFF884A01BF806902C46A845C5
:104DE00023DD7A5D0A2A1CD1B9F10D0F19D0AC422E
:104DF0000BDA2A1B39193046FFF778FF0028DCDB75
:104E00000444A542DBDC0BF80690012251463046F3
:104E1000FFF76CFF0028D0DBD1D04FF00D030BF86B
:104E2000063017F805900135D9E7A045C7DDA8EB96
:104E3000040239193046FFF759FF0028BDDB24185A
:104E40001FBF3F19044B17F8012C9A55B7E700BF55
:104E50004D5101082F0101803C370020FF4101081E
:104E6000FFF77ABF7FB504460D461646FFF76FFB86
:104E700030B100231E491F4800932246FFF7FCFC77
:104E8000FFF75FFB0028F4D0002E06DA0CF056FC8A
:104E9000162303604FF0FF3018E02046FFF75CFF59
:104EA000E8B1154E01220DF10F012046FFF739FF41
:104EB0000028EFDB0AD09DF80F300D2B08D1325DB2
:104EC0000A2A3355EED00A232B70012004B070BD9E
:104ED0000A2B02D1325D0D2AF3E73355F4E732464F
:104EE0002946204604B0BDE87040FFF71ABF00BF56
:104EF000875101082F010180FC36002013B5CDE950
:104F00000021FFF791FEDDE9002140B90CF016FC0D
:104F1000092303604FF0FF34204602B010BD036840
:104F20001B699847041EF7DA0CF008FC6442046021
:104F3000F0E7FFF7E3BF10B5FFF776FE30B90CF0EE
:104F4000FDFB092303604FF0FF3010BD03689B6930
:104F50009847041E04DA0CF0F1FB64420460F2E7A7
:104F60000020F2E70A4D08B52B68044698680CF05B
:104F700017FD2B68D8680CF013FD0120FFF7DBFF4D
:104F80000220FFF7D8FF0CB1FFF75CFAFEE700BF85
:104F90000403002008B5FFF7E5FF38B50D46FFF71D
:104FA00043FE044630B90CF0C9FB092303604FF0FF
:104FB000FF3038BD0368DB699847002814BF4FF401
:104FC00000534FF400436B60236820469B6A984768
:104FD00028610020EDE7FFF7E0BF00001FB5039058
:104FE0000DF0D6F9039A034620B90090034904480E
:104FF000FFF742FC05B05DF804FB00BFC351010898
:105000001F0101801FB503900DF0C2F9039A0346FA
:1050100020B9009003490448FFF72EFC05B05DF865
:1050200004FB00BFE05101081F0101800DF0B8B979
:105030000DF0B6B970B50446FEF748FC0646FEF71B
:105040003FFC05463046FEF73BFC431BA342F9D329
:1050500070BD00001FB50023CDE90013031D0446F9
:105060000293684610230393FBF736FC206020B9B7
:10507000034904483522FFF79FF904B010BD00BF73
:10508000685201089752010810B50446FFF7E2FF85
:10509000204610BD0068FBF737BC10B50446006819
:1050A000FBF790FC204610BD10B49DF804400CB9ED
:1050B00042F0020200685DF8044BFBF755BC07B5EF
:1050C000009313460022FFF7EFFF03B05DF804FBE7
:1050D000FFF7F5BF13B5FFF741FAFBF75BFE094990
:1050E0000B6808608342084B82BF1A6801321A605D
:1050F000196801910446FFF747FA0199204602B06A
:1051000010BD00BF8C370020883700201FB500235A
:1051100003620D4B002918BF0B460093031D029339
:105120001C230446039368460B230193FCF756FBAC
:10513000206038B9FFF79AFB20B9044904483D22A2
:10514000FFF73AF904B010BD9B520108B5520108AF
:10515000DF52010810B500210446FFF7D7FF2046B3
:1051600010BD000037B504464FF0FF310068FCF772
:105170004DFB054620B9236A0133236203B030BDDD
:10518000FFF774FB03460028F8D103490348009356
:105190002A46FFF771FB00BF035301081501028087
:1051A000036A013B13B503620068FCF747FB044642
:1051B00048B1FFF75BFB034628B900900349044858
:1051C0002246FFF759FB02B010BD00BF155301087E
:1051D0001701028010B504460068FCF747FB204623
:1051E00010BD00001FB504460023CDE90033231D88
:1051F000104602936A4610230393FCF73DFC20609F
:1052000020B9034903483722FFF7D6F804B010BD90
:10521000295301085753010810B54FF6FF72044691
:10522000FFF7E0FF204610BD0068FCF73DBC10B55D
:1052300004460068FCF766FC204610BD10B50C461D
:1052400019460AB943F002012246FDF7BDF9031ED3
:1052500010DA9A1C06D1013408D107490748702298
:10526000FFF7AAF80333F8D1002CF6D1BDE81040BF
:10527000FDF79AB910BD00BF6653010895530108A8
:105280000A46024900230968FFF7D8BF2C540108D9
:1052900008B5FBF7CDF920B102490348E122FFF739
:1052A0008BF808BD665301081A540108FFF7F0BFD8
:1052B000036910B504462BB90B490C484FF4FD7235
:1052C000FFF77AF80430984704F15400FFF74AFFDB
:1052D00000236361012384F83D3004F14000BDE800
:1052E0001040FFF7A1BF00BF0A4901084349010868
:1052F0002DE9F047DDE9085799466B07044618BFCA
:1053000025F00706884692464FF000014FF0440210
:1053100000F178000CBF2E4608360DF05FFCB5FAA0
:1053200085F300215B0984F83C30616184F83D100D
:10533000202204F11C000DF051FC4D44074BC4F831
:1053400030A0AD1B25F00705002F08BF1F46E56202
:10535000A761A662C4F83480BDE8F0873054010824
:1053600013B5049CCDE9003413460A460021FFF72B
:10537000BFFF02B010BD000084B0F8B5044600F1D4
:10538000540707AD384685E80E00FFF7EBFE63696A
:1053900013B994F83D3043B13846FFF701FF6FF081
:1053A0000300BDE8F84004B07047A36A53B9E06A4F
:1053B0001F4B984294BF20F003004FF0FF30FFF7DF
:1053C00021FEA0621B490023E26AB3EB920F04D2D4
:1053D000A26A42F823100133F6E74423636204F122
:1053E0007803236295E80F00261D86E80F00124817
:1053F00004F118022146FDF757F8606190B994F85E
:105400003C302BB1A06A08B1FFF712FE0023A36263
:105410003846FFF7C5FE04F14000FFF705FF6FF0C7
:105420000200BEE73846FFF7BBFE0020B9E700BF29
:10543000FBFFFF7FA52E5AE2B152000870B500F1C4
:10544000540504462846FFF78DFE04F140006669C6
:10545000FFF7EAFE0023636194F83D302BB100248E
:105460002846FFF79DFE204670BD012384F83D309D
:10547000002EF4D03046FDF743F80446F0E7000074
:1054800010B50C4B03600446FFF7D8FF94F83C308E
:105490002BB1A06A08B1FFF7CBFD0023A36204F192
:1054A0005400FFF797FE04F14000FFF7C0FE2046CE
:1054B00010BD00BFA854010810B50446FFF7E0FF77
:1054C0002046BC21FFF7B2FD204610BD08B540695B
:1054D000FDF730F8002804DA02490348B022FEF74D
:1054E0006BFF08BD4B5401088654010830B5B1B0BC
:1054F000482200210AA80DF071FB1C22002103A8FC
:105500000DF06CFB502200211CA80DF067FB4FF042
:10551000B0434A491A6D42F400221A651B6D03F428
:1055200000230193019B464BD1F88C209A42FBD17A
:10553000002001F0ADFB68B14FF0B042414B8179E2
:10554000C2F89C30D2F89C3023F47C5343EA012308
:10555000C2F89C303C4A3949136823F4C06343F4D1
:1055600000731360136803F4C0630093009B344B13
:10557000D1F894209A42FBD14FF480334721CDE9F2
:105580000A134FF480730D93402301240E930AA84D
:10559000002314940C94159302F090FA10B12B4848
:1055A000FFF73CF9CDE90500CDE907006F2302259F
:1055B0000990214603A8CDE9033502F05BFD08B14F
:1055C0002348EDE74FF44C531C934FF080532A933C
:1055D0004FF48043CDE92D35299010231CA82F933B
:1055E00002F0EDFE08B11B48DAE7174BDA6922F04A
:1055F0007002DA61184AD2F85825C2F303220292E7
:10560000029A8AB9DA6922F00F0242F00402DA61E2
:105610004FF0B042936843F400439360074B4FF45C
:105620008062DA6031B030BD0299DA69023922F065
:105630000F0281F304010A43E9E700BF0014005898
:1056400000040080FECAFECA00040058A8560108E3
:10565000C1560108DC5601080070FF1FD458C45021
:105660000433C4188C42F9D3704703600430884275
:10567000FBD370470B48854604F054F90A480B49A0
:105680000B4A0023FFF7EDFF0A480B490023FFF701
:10569000EEFF0A480A490023FFF7E9FFFAF772FD17
:1056A0007047FEE70000032040010020500B00205F
:1056B00074640108600B0020383C00200080032047
:1056C00000800320FEE70000F8B54468174E8C23E5
:1056D00003FB046305469A68B2F5805F15D11A6929
:1056E000B2B940F2FF12A3F860208C2303FB0463DD
:1056F000B3F86070284600F017FE0028FAD08C231B
:105700005C433359586A3840F8BD1AB91A6932B93E
:10571000FF22E8E7B2F1805F05D11A690AB97F225A
:10572000E1E73F22DFE70022DDE700BF90370020FE
:1057300070B5466805460C46284600F005FE002870
:10574000FAD08C235E43034B9B59C4F308049C623C
:1057500070BD00BF9037002008B5094A836E9342A0
:1057600007D002F57842934207D1BDE8084002F025
:10577000E9BDBDE8084002F0D3BD0248FFF74EF88E
:1057800000380040C057010838B500F035FF044626
:1057900098B90A4DFEF7E2FE01F04AFA2C6004F0D7
:1057A00065F804F093F8FFF7A1FE01F059FA012320
:1057B0002B60BDE83840FEF7E7BE38BD103B002047
:1057C0004FF0B04382B0DA6C0243DA64DB6C18400D
:1057D0000190019B02B0704730B591FAA1F391FAA4
:1057E000A1F1B3FA83F304685B000325B1FA81F1F8
:1057F00005FA03F3490024EA03038A4013430360D4
:1058000030BD000008B5072824D8DFE800F0040AFE
:105810000F141923231E0120FFF7D2FF4FF09040F1
:1058200008BD0220FFF7CCFF0C48F9E70420FFF782
:10583000C7FF0B48F4E70820FFF7C2FF0948EFE76E
:105840001020FFF7BDFF0848EAE78020FFF7B8FF08
:105850000648E5E70648FEF7E1FF00BF0004004800
:1058600000080048000C004800100048001C0048D8
:10587000DA570108431C10B5044604D1064907480D
:105880007622FEF799FD4FF4707100F06BFC04F086
:105890000F040120A04010BDFB5701082D5801083E
:1058A0004B1C70B504460E46018218D0C1F303109C
:1058B000FFF7A8FF05463046FFF7DCFF238A084ABA
:1058C000656103F00F03206052F82330A36105F1F6
:1058D0001003636005F118032835A360E56070BD0F
:1058E00018590108B0F9100000F0C6BC0A46D0E90A
:1058F00005010AB9FFF770BF0122FBE7224A4C23DA
:105900002DE9F04103FB0022204D0024944601279D
:10591000DCF8006007FA04F333422BD0536BEE68D7
:1059200007FA03F31E4225D0D2F81CE0EB6056685C
:1059300006B36A6833EA020203D12A6833EA020234
:1059400014D1124A116833EA010103D1526833EAD3
:1059500002020DD1DEF810201A4214BF01210221EB
:105960000B4B30461B68BDE8F04118470221F7E7B2
:105970000121F5E70134A14202F10402C8D1014638
:105980000448FEF74BFF00BFA8380020000800586D
:10599000BC3A00204058010806210846FFF7AEBF78
:1059A00005210846FFF7AABF01210420FFF7A6BF83
:1059B00001210320FFF7A2BF01210220FFF79EBFB4
:1059C00001210846FFF79ABF01210020FFF796BF8B
:1059D000012910B514D18389154C03F00F039940A8
:1059E000836832B122681143216043F00103836070
:1059F00010BD226822EA0101216023F00103F6E7CD
:105A00000229F5D181890A4C01F00F030121994047
:105A100083682AB162681143616043F00203E6E7DC
:105A2000626822EA0101616023F00203DFE700BF40
:105A3000000800588389B0F90C2003F00C0101F133
:105A4000804101F5803170B503F00F0503F00303C9
:105A50008C689B000F269E40C2F3031224EA0604C2
:105A600002FA03F32343114A8B60D2F8801001231A
:105A7000AB401943C2F880108468E50742BF116843
:105A800019431160A10742BF51680B43536090F95D
:105A90000030002B08DB0122590903F01F0302FA32
:105AA00003F3034A42F8213070BD00BF00080058DC
:105AB00000E100E02DE9F74F9A464B1C05460C46E5
:105AC00090465CD02F4FFEF749FD04F00F090C23E0
:105AD00003FB0973C4F30310596806294CD8DFE8A7
